{
  "contractName": "doctor",
  "abi": [
    {
      "constant": true,
      "inputs": [
        {
          "internalType": "address",
          "name": "",
          "type": "address"
        }
      ],
      "name": "DoctorsList",
      "outputs": [
        {
          "internalType": "string",
          "name": "Name",
          "type": "string"
        },
        {
          "internalType": "string",
          "name": "Email",
          "type": "string"
        },
        {
          "internalType": "string",
          "name": "PhoneNumber",
          "type": "string"
        },
        {
          "internalType": "string",
          "name": "Address",
          "type": "string"
        },
        {
          "internalType": "string",
          "name": "Hospitals",
          "type": "string"
        },
        {
          "internalType": "bool",
          "name": "isValue",
          "type": "bool"
        },
        {
          "internalType": "string",
          "name": "dID",
          "type": "string"
        }
      ],
      "payable": false,
      "stateMutability": "view",
      "type": "function"
    },
    {
      "constant": false,
      "inputs": [
        {
          "internalType": "string",
          "name": "_Name",
          "type": "string"
        },
        {
          "internalType": "string",
          "name": "_Email",
          "type": "string"
        },
        {
          "internalType": "string",
          "name": "_PhoneNumber",
          "type": "string"
        },
        {
          "internalType": "string",
          "name": "_Address",
          "type": "string"
        },
        {
          "internalType": "string",
          "name": "_Hospitals",
          "type": "string"
        },
        {
          "internalType": "string",
          "name": "_dID",
          "type": "string"
        }
      ],
      "name": "setDetailsDoctor",
      "outputs": [],
      "payable": false,
      "stateMutability": "nonpayable",
      "type": "function"
    },
    {
      "constant": true,
      "inputs": [
        {
          "internalType": "address",
          "name": "user",
          "type": "address"
        }
      ],
      "name": "getDoctorDetails",
      "outputs": [
        {
          "components": [
            {
              "internalType": "string",
              "name": "Name",
              "type": "string"
            },
            {
              "internalType": "string",
              "name": "Email",
              "type": "string"
            },
            {
              "internalType": "string",
              "name": "PhoneNumber",
              "type": "string"
            },
            {
              "internalType": "string",
              "name": "Address",
              "type": "string"
            },
            {
              "internalType": "string",
              "name": "Hospitals",
              "type": "string"
            },
            {
              "internalType": "bool",
              "name": "isValue",
              "type": "bool"
            },
            {
              "internalType": "string",
              "name": "dID",
              "type": "string"
            }
          ],
          "internalType": "struct doctor.DoctorDetails",
          "name": "",
          "type": "tuple"
        }
      ],
      "payable": false,
      "stateMutability": "view",
      "type": "function"
    },
    {
      "constant": true,
      "inputs": [
        {
          "internalType": "address",
          "name": "user",
          "type": "address"
        }
      ],
      "name": "Exists",
      "outputs": [
        {
          "internalType": "bool",
          "name": "exists",
          "type": "bool"
        }
      ],
      "payable": false,
      "stateMutability": "view",
      "type": "function"
    },
    {
      "constant": false,
      "inputs": [
        {
          "internalType": "string[]",
          "name": "_fileHash",
          "type": "string[]"
        },
        {
          "internalType": "string",
          "name": "_patientAddress",
          "type": "string"
        },
        {
          "internalType": "string",
          "name": "_Name",
          "type": "string"
        },
        {
          "internalType": "string",
          "name": "_Age",
          "type": "string"
        },
        {
          "internalType": "string",
          "name": "_PhoneNumber",
          "type": "string"
        },
        {
          "internalType": "string",
          "name": "_BloodGroup",
          "type": "string"
        },
        {
          "internalType": "string",
          "name": "_HealthConditions",
          "type": "string"
        },
        {
          "internalType": "string",
          "name": "_HospitalsAttended",
          "type": "string"
        },
        {
          "internalType": "string",
          "name": "dID",
          "type": "string"
        }
      ],
      "name": "getGrant",
      "outputs": [],
      "payable": false,
      "stateMutability": "nonpayable",
      "type": "function"
    },
    {
      "constant": true,
      "inputs": [],
      "name": "getDoctorsList",
      "outputs": [
        {
          "internalType": "address[]",
          "name": "",
          "type": "address[]"
        }
      ],
      "payable": false,
      "stateMutability": "view",
      "type": "function"
    },
    {
      "constant": true,
      "inputs": [],
      "name": "getDoctorsNames",
      "outputs": [
        {
          "internalType": "string[]",
          "name": "",
          "type": "string[]"
        }
      ],
      "payable": false,
      "stateMutability": "view",
      "type": "function"
    },
    {
      "constant": true,
      "inputs": [
        {
          "internalType": "string",
          "name": "user",
          "type": "string"
        }
      ],
      "name": "getPatientDetails",
      "outputs": [
        {
          "internalType": "string[][]",
          "name": "",
          "type": "string[][]"
        }
      ],
      "payable": false,
      "stateMutability": "view",
      "type": "function"
    }
  ],
  "bytecode": "0x608060405234801561001057600080fd5b506121ed806100206000396000f3fe608060405234801561001057600080fd5b50600436106100885760003560e01c8063c95171ae1161005b578063c95171ae1461012b578063cda981d514610149578063da023bb114610179578063ea977fc81461019757610088565b80630f029c9d1461008d578063a1df59c7146100c3578063aaa40b33146100df578063bab90dbd146100fb575b600080fd5b6100a760048036036100a29190810190611669565b6101c7565b6040516100ba9796959493929190611e53565b60405180910390f35b6100dd60048036036100d89190810190611871565b6105a6565b005b6100f960048036036100f49190810190611692565b610799565b005b61011560048036036101109190810190611669565b610a90565b6040516101229190611eec565b60405180910390f35b610133610ed0565b6040516101409190611dd2565b60405180910390f35b610163600480360361015e9190810190611669565b610f5e565b6040516101709190611e38565b60405180910390f35b610181610fcf565b60405161018e9190611e16565b60405180910390f35b6101b160048036036101ac9190810190611830565b6110b8565b6040516101be9190611df4565b60405180910390f35b6001602052806000526040600020600091509050806000018054600181600116156101000203166002900480601f0160208091040260200160405190810160405280929190818152602001828054600181600116156101000203166002900480156102735780601f1061024857610100808354040283529160200191610273565b820191906000526020600020905b81548152906001019060200180831161025657829003601f168201915b505050505090806001018054600181600116156101000203166002900480601f0160208091040260200160405190810160405280929190818152602001828054600181600116156101000203166002900480156103115780601f106102e657610100808354040283529160200191610311565b820191906000526020600020905b8154815290600101906020018083116102f457829003601f168201915b505050505090806002018054600181600116156101000203166002900480601f0160208091040260200160405190810160405280929190818152602001828054600181600116156101000203166002900480156103af5780601f10610384576101008083540402835291602001916103af565b820191906000526020600020905b81548152906001019060200180831161039257829003601f168201915b505050505090806003018054600181600116156101000203166002900480601f01602080910402602001604051908101604052809291908181526020018280546001816001161561010002031660029004801561044d5780601f106104225761010080835404028352916020019161044d565b820191906000526020600020905b81548152906001019060200180831161043057829003601f168201915b505050505090806004018054600181600116156101000203166002900480601f0160208091040260200160405190810160405280929190818152602001828054600181600116156101000203166002900480156104eb5780601f106104c0576101008083540402835291602001916104eb565b820191906000526020600020905b8154815290600101906020018083116104ce57829003601f168201915b5050505050908060050160009054906101000a900460ff1690806006018054600181600116156101000203166002900480601f01602080910402602001604051908101604052809291908181526020018280546001816001161561010002031660029004801561059c5780601f106105715761010080835404028352916020019161059c565b820191906000526020600020905b81548152906001019060200180831161057f57829003601f168201915b5050505050905087565b6040518060e0016040528087815260200186815260200185815260200184815260200183815260200160011515815260200182815250600160003373ffffffffffffffffffffffffffffffffffffffff1673ffffffffffffffffffffffffffffffffffffffff1681526020019081526020016000206000820151816000019080519060200190610637929190611209565b506020820151816001019080519060200190610654929190611209565b506040820151816002019080519060200190610671929190611209565b50606082015181600301908051906020019061068e929190611209565b5060808201518160040190805190602001906106ab929190611209565b5060a08201518160050160006101000a81548160ff02191690831515021790555060c08201518160060190805190602001906106e8929190611209565b5090505060023390806001815401808255809150509060018203906000526020600020016000909192909190916101000a81548173ffffffffffffffffffffffffffffffffffffffff021916908373ffffffffffffffffffffffffffffffffffffffff16021790555050600386908060018154018082558091505090600182039060005260206000200160009091929091909150908051906020019061078f929190611289565b5050505050505050565b6000809050600080905060008090505b6000846040516107b99190611dbb565b90815260200160405180910390206000018054905081101561085d576000846040516107e59190611dbb565b9081526020016040518091039020600001818154811061080157fe5b9060005260206000200160008154811061081757fe5b9060005260206000200160405161082e9190611da4565b60405180910390208b805190602001201415610850576001925080915061085d565b80806001019150506107a9565b5081610975576040518060e001604052808b81526020018a81526020018981526020018881526020018781526020018681526020018581525060069060076108a6929190611309565b5060008090505b8b518110156109155760068c82815181106108c457fe5b60200260200101519080600181540180825580915050906001820390600052602060002001600090919290919091509080519060200190610906929190611289565b505080806001019150506108ad565b506000836040516109269190611dbb565b9081526020016040518091039020600001600690806001815401808255809150509060018203906000526020600020016000909192909190915090805461096e929190611369565b5050610a70565b6040518060e001604052808b81526020018a81526020018981526020018881526020018781526020018681526020018581525060069060076109b8929190611309565b5060008090505b8b51811015610a275760068c82815181106109d657fe5b60200260200101519080600181540180825580915050906001820390600052602060002001600090919290919091509080519060200190610a18929190611289565b505080806001019150506109bf565b506006600084604051610a3a9190611dbb565b90815260200160405180910390206000018281548110610a5657fe5b90600052602060002001908054610a6e929190611369565b505b60056006908054610a82929190611369565b505050505050505050505050565b610a986113d9565b600160008373ffffffffffffffffffffffffffffffffffffffff1673ffffffffffffffffffffffffffffffffffffffff1681526020019081526020016000206040518060e0016040529081600082018054600181600116156101000203166002900480601f016020809104026020016040519081016040528092919081815260200182805460018160011615610100020316600290048015610b7b5780601f10610b5057610100808354040283529160200191610b7b565b820191906000526020600020905b815481529060010190602001808311610b5e57829003601f168201915b50505050508152602001600182018054600181600116156101000203166002900480601f016020809104026020016040519081016040528092919081815260200182805460018160011615610100020316600290048015610c1d5780601f10610bf257610100808354040283529160200191610c1d565b820191906000526020600020905b815481529060010190602001808311610c0057829003601f168201915b50505050508152602001600282018054600181600116156101000203166002900480601f016020809104026020016040519081016040528092919081815260200182805460018160011615610100020316600290048015610cbf5780601f10610c9457610100808354040283529160200191610cbf565b820191906000526020600020905b815481529060010190602001808311610ca257829003601f168201915b50505050508152602001600382018054600181600116156101000203166002900480601f016020809104026020016040519081016040528092919081815260200182805460018160011615610100020316600290048015610d615780601f10610d3657610100808354040283529160200191610d61565b820191906000526020600020905b815481529060010190602001808311610d4457829003601f168201915b50505050508152602001600482018054600181600116156101000203166002900480601f016020809104026020016040519081016040528092919081815260200182805460018160011615610100020316600290048015610e035780601f10610dd857610100808354040283529160200191610e03565b820191906000526020600020905b815481529060010190602001808311610de657829003601f168201915b505050505081526020016005820160009054906101000a900460ff16151515158152602001600682018054600181600116156101000203166002900480601f016020809104026020016040519081016040528092919081815260200182805460018160011615610100020316600290048015610ec05780601f10610e9557610100808354040283529160200191610ec0565b820191906000526020600020905b815481529060010190602001808311610ea357829003601f168201915b5050505050815250509050919050565b60606002805480602002602001604051908101604052809291908181526020018280548015610f5457602002820191906000526020600020905b8160009054906101000a900473ffffffffffffffffffffffffffffffffffffffff1673ffffffffffffffffffffffffffffffffffffffff1681526020019060010190808311610f0a575b5050505050905090565b600060011515600160008473ffffffffffffffffffffffffffffffffffffffff1673ffffffffffffffffffffffffffffffffffffffff16815260200190815260200160002060050160009054906101000a900460ff1615151415610fc55760019050610fca565b600090505b919050565b60606003805480602002602001604051908101604052809291908181526020016000905b828210156110af578382906000526020600020018054600181600116156101000203166002900480601f01602080910402602001604051908101604052809291908181526020018280546001816001161561010002031660029004801561109b5780601f106110705761010080835404028352916020019161109b565b820191906000526020600020905b81548152906001019060200180831161107e57829003601f168201915b505050505081526020019060010190610ff3565b50505050905090565b60606000826040516110ca9190611dbb565b9081526020016040518091039020600001805480602002602001604051908101604052809291908181526020016000905b828210156111fe57838290600052602060002001805480602002602001604051908101604052809291908181526020016000905b828210156111eb578382906000526020600020018054600181600116156101000203166002900480601f0160208091040260200160405190810160405280929190818152602001828054600181600116156101000203166002900480156111d75780601f106111ac576101008083540402835291602001916111d7565b820191906000526020600020905b8154815290600101906020018083116111ba57829003601f168201915b50505050508152602001906001019061112f565b50505050815260200190600101906110fb565b505050509050919050565b828054600181600116156101000203166002900490600052602060002090601f016020900481019282601f1061124a57805160ff1916838001178555611278565b82800160010185558215611278579182015b8281111561127757825182559160200191906001019061125c565b5b5090506112859190611418565b5090565b828054600181600116156101000203166002900490600052602060002090601f016020900481019282601f106112ca57805160ff19168380011785556112f8565b828001600101855582156112f8579182015b828111156112f75782518255916020019190600101906112dc565b5b5090506113059190611418565b5090565b828054828255906000526020600020908101928215611358579160200282015b82811115611357578251829080519060200190611347929190611209565b5091602001919060010190611329565b5b509050611365919061143d565b5090565b8280548282559060005260206000209081019282156113c85760005260206000209182015b828111156113c757828290805460018160011615610100020316600290046113b7929190611469565b509160010191906001019061138e565b5b5090506113d5919061143d565b5090565b6040518060e001604052806060815260200160608152602001606081526020016060815260200160608152602001600015158152602001606081525090565b61143a91905b8082111561143657600081600090555060010161141e565b5090565b90565b61146691905b80821115611462576000818161145991906114f0565b50600101611443565b5090565b90565b828054600181600116156101000203166002900490600052602060002090601f016020900481019282601f106114a257805485556114df565b828001600101855582156114df57600052602060002091601f016020900482015b828111156114de5782548255916001019190600101906114c3565b5b5090506114ec9190611418565b5090565b50805460018160011615610100020316600290046000825580601f106115165750611535565b601f0160209004906000526020600020908101906115349190611418565b5b50565b60008135905061154781612193565b92915050565b600082601f83011261155e57600080fd5b813561157161156c82611f3b565b611f0e565b9150818183526020840193506020810190508360005b838110156115b7578135860161159d88826115c1565b845260208401935060208301925050600181019050611587565b5050505092915050565b600082601f8301126115d257600080fd5b81356115e56115e082611f63565b611f0e565b9150808252602083016020830185838301111561160157600080fd5b61160c838284612140565b50505092915050565b600082601f83011261162657600080fd5b813561163961163482611f8f565b611f0e565b9150808252602083016020830185838301111561165557600080fd5b611660838284612140565b50505092915050565b60006020828403121561167b57600080fd5b600061168984828501611538565b91505092915050565b60008060008060008060008060006101208a8c0312156116b157600080fd5b60008a013567ffffffffffffffff8111156116cb57600080fd5b6116d78c828d0161154d565b99505060208a013567ffffffffffffffff8111156116f457600080fd5b6117008c828d01611615565b98505060408a013567ffffffffffffffff81111561171d57600080fd5b6117298c828d01611615565b97505060608a013567ffffffffffffffff81111561174657600080fd5b6117528c828d01611615565b96505060808a013567ffffffffffffffff81111561176f57600080fd5b61177b8c828d01611615565b95505060a08a013567ffffffffffffffff81111561179857600080fd5b6117a48c828d01611615565b94505060c08a013567ffffffffffffffff8111156117c157600080fd5b6117cd8c828d01611615565b93505060e08a013567ffffffffffffffff8111156117ea57600080fd5b6117f68c828d01611615565b9250506101008a013567ffffffffffffffff81111561181457600080fd5b6118208c828d01611615565b9150509295985092959850929598565b60006020828403121561184257600080fd5b600082013567ffffffffffffffff81111561185c57600080fd5b61186884828501611615565b91505092915050565b60008060008060008060c0878903121561188a57600080fd5b600087013567ffffffffffffffff8111156118a457600080fd5b6118b089828a01611615565b965050602087013567ffffffffffffffff8111156118cd57600080fd5b6118d989828a01611615565b955050604087013567ffffffffffffffff8111156118f657600080fd5b61190289828a01611615565b945050606087013567ffffffffffffffff81111561191f57600080fd5b61192b89828a01611615565b935050608087013567ffffffffffffffff81111561194857600080fd5b61195489828a01611615565b92505060a087013567ffffffffffffffff81111561197157600080fd5b61197d89828a01611615565b9150509295509295509295565b600061199683836119ca565b60208301905092915050565b60006119ae8383611b21565b905092915050565b60006119c28383611c73565b905092915050565b6119d381612102565b82525050565b60006119e482612010565b6119ee8185612086565b93506119f983611fbb565b8060005b83811015611a2a578151611a11888261198a565b9750611a1c83612052565b9250506001810190506119fd565b5085935050505092915050565b6000611a428261201b565b611a4c8185612097565b935083602082028501611a5e85611fcb565b8060005b85811015611a9a5784840389528151611a7b85826119a2565b9450611a868361205f565b925060208a01995050600181019050611a62565b50829750879550505050505092915050565b6000611ab782612031565b611ac181856120b9565b935083602082028501611ad385611feb565b8060005b85811015611b0f5784840389528151611af085826119b6565b9450611afb83612079565b925060208a01995050600181019050611ad7565b50829750879550505050505092915050565b6000611b2c82612026565b611b3681856120a8565b935083602082028501611b4885611fdb565b8060005b85811015611b845784840389528151611b6585826119b6565b9450611b708361206c565b925060208a01995050600181019050611b4c565b50829750879550505050505092915050565b611b9f81612114565b82525050565b611bae81612114565b82525050565b600081546001811660008114611bd15760018114611bf657611c3a565b607f6002830416611be281876120ca565b955060ff1983168652808601935050611c3a565b60028204611c0481876120ca565b9550611c0f85611ffb565b60005b82811015611c3157815481890152600182019150602081019050611c12565b82880195505050505b505092915050565b6000611c4d82612047565b611c5781856120f7565b9350611c6781856020860161214f565b80840191505092915050565b6000611c7e8261203c565b611c8881856120d5565b9350611c9881856020860161214f565b611ca181612182565b840191505092915050565b6000611cb78261203c565b611cc181856120e6565b9350611cd181856020860161214f565b611cda81612182565b840191505092915050565b600060e0830160008301518482036000860152611d028282611c73565b91505060208301518482036020860152611d1c8282611c73565b91505060408301518482036040860152611d368282611c73565b91505060608301518482036060860152611d508282611c73565b91505060808301518482036080860152611d6a8282611c73565b91505060a0830151611d7f60a0860182611b96565b5060c083015184820360c0860152611d978282611c73565b9150508091505092915050565b6000611db08284611bb4565b915081905092915050565b6000611dc78284611c42565b915081905092915050565b60006020820190508181036000830152611dec81846119d9565b905092915050565b60006020820190508181036000830152611e0e8184611a37565b905092915050565b60006020820190508181036000830152611e308184611aac565b905092915050565b6000602082019050611e4d6000830184611ba5565b92915050565b600060e0820190508181036000830152611e6d818a611cac565b90508181036020830152611e818189611cac565b90508181036040830152611e958188611cac565b90508181036060830152611ea98187611cac565b90508181036080830152611ebd8186611cac565b9050611ecc60a0830185611ba5565b81810360c0830152611ede8184611cac565b905098975050505050505050565b60006020820190508181036000830152611f068184611ce5565b905092915050565b6000604051905081810181811067ffffffffffffffff82111715611f3157600080fd5b8060405250919050565b600067ffffffffffffffff821115611f5257600080fd5b602082029050602081019050919050565b600067ffffffffffffffff821115611f7a57600080fd5b601f19601f8301169050602081019050919050565b600067ffffffffffffffff821115611fa657600080fd5b601f19601f8301169050602081019050919050565b6000819050602082019050919050565b6000819050602082019050919050565b6000819050602082019050919050565b6000819050602082019050919050565b60008190508160005260206000209050919050565b600081519050919050565b600081519050919050565b600081519050919050565b600081519050919050565b600081519050919050565b600081519050919050565b6000602082019050919050565b6000602082019050919050565b6000602082019050919050565b6000602082019050919050565b600082825260208201905092915050565b600082825260208201905092915050565b600082825260208201905092915050565b600082825260208201905092915050565b600081905092915050565b600082825260208201905092915050565b600082825260208201905092915050565b600081905092915050565b600061210d82612120565b9050919050565b60008115159050919050565b600073ffffffffffffffffffffffffffffffffffffffff82169050919050565b82818337600083830152505050565b60005b8381101561216d578082015181840152602081019050612152565b8381111561217c576000848401525b50505050565b6000601f19601f8301169050919050565b61219c81612102565b81146121a757600080fd5b5056fea365627a7a72315820e35bbff4a8af92f354169d8472a02fbd521467b2263f6e98aed0e5a28b13ddf66c6578706572696d656e74616cf564736f6c63430005100040",
  "source": "pragma solidity >=0.4.21 <0.6.0;\n// pragma solidity >=0.7.0 <0.9.0;\npragma experimental ABIEncoderV2;\n\n\ncontract doctor{\n\n    struct DoctorDetails{    \n        string Name;\n        string Email;\n        string PhoneNumber;\n        string Address; \n        string Hospitals;\n        bool isValue;\n        string dID;\n        //address[] Patients;\n    }\n\n    struct PatientDetails{\n        string[][] details;\n        // string[] temp;\n    }\n\n    mapping (string => PatientDetails) private PatientList;\n    mapping (address => DoctorDetails) public DoctorsList;\n    address[] DoctorsIDs;\n    string[] DoctorNames;\n    string[][] emptyStringArray;\n    string[] emptyArray;\n    string[] temp;\n\n    function setDetailsDoctor(string memory _Name, string memory _Email , \n                        string memory _PhoneNumber , string memory _Address, string memory _Hospitals, string memory _dID) public {\n        DoctorsList[msg.sender] = DoctorDetails({\n            Name: _Name,            \n            Email: _Email,\n            PhoneNumber: _PhoneNumber,\n            Address: _Address,            \n            Hospitals: _Hospitals,\n            isValue: true,\n            dID: _dID\n        });\n\n        DoctorsIDs.push(msg.sender);\n        DoctorNames.push(_Name);\n\n    }\n\n    function getDoctorDetails(address user) public view returns(DoctorDetails memory){\n        return DoctorsList[user];\n    }\n\n    function Exists(address user) public view returns(bool exists) {\n        if(DoctorsList[user].isValue == true) return true;\n        return false;\n    }\n\n    function getGrant(string[] memory _fileHash, string memory _patientAddress, string memory _Name, string memory _Age, string memory _PhoneNumber,\n        string memory _BloodGroup, string memory _HealthConditions,string memory _HospitalsAttended, string memory dID) public {\n        \n        bool existsInPatient = false;\n        uint256 index = 0;\n        for (uint256 i = 0; i < PatientList[dID].details.length; i++) {\n            if(keccak256(bytes(_patientAddress)) == keccak256(bytes(PatientList[dID].details[i][0]))){\n                existsInPatient=true;\n                index = i;\n                break;\n            }\n        }\n        \n        if(!existsInPatient){\n            temp = [_patientAddress, _Name,\n            _Age,\n            _PhoneNumber,\n            _BloodGroup,\n            _HealthConditions,\n            _HospitalsAttended];\n        \n            for (uint256 i = 0; i < _fileHash.length; i++) {\n                temp.push(_fileHash[i]);\n            }\n\n            PatientList[dID].details.push(temp);\n        }else{\n\n            temp = [_patientAddress, _Name,\n            _Age,\n            _PhoneNumber,\n            _BloodGroup,\n            _HealthConditions,\n            _HospitalsAttended];\n\n            for (uint256 i = 0; i < _fileHash.length; i++) {\n                temp.push(_fileHash[i]);\n            }\n\n            PatientList[dID].details[index] = temp;\n        }\n        \n        temp = emptyArray;\n\n    }\n\n    \n    function getDoctorsList() public view returns (address[] memory){\n        return DoctorsIDs;\n    }\n\n    function getDoctorsNames() public view returns (string[] memory){\n        return DoctorNames;\n    }\n\n    function getPatientDetails(string memory user) public view returns(string[][] memory){\n        return PatientList[user].details;\n    }\n\n}",
  "sourcePath": "/home/abhirampuranik/HealthcareSystem_Blockchain/src/contracts/doctor.sol",
  "compiler": {
    "name": "solc",
    "version": "0.5.16+commit.9c3226ce.Emscripten.clang"
  },
  "schemaVersion": "3.4.3",
  "updatedAt": "2021-12-07T16:09:10.196Z",
  "networkType": "ethereum",
  "devdoc": {
    "methods": {}
  },
  "userdoc": {
    "methods": {}
  }
}