{
  "contractName": "doctor",
  "abi": [
    {
      "constant": true,
      "inputs": [
        {
          "internalType": "address",
          "name": "",
          "type": "address"
        }
      ],
      "name": "DoctorsList",
      "outputs": [
        {
          "internalType": "string",
          "name": "Name",
          "type": "string"
        },
        {
          "internalType": "string",
          "name": "Email",
          "type": "string"
        },
        {
          "internalType": "string",
          "name": "PhoneNumber",
          "type": "string"
        },
        {
          "internalType": "string",
          "name": "Address",
          "type": "string"
        },
        {
          "internalType": "string",
          "name": "Hospitals",
          "type": "string"
        },
        {
          "internalType": "bool",
          "name": "isValue",
          "type": "bool"
        }
      ],
      "payable": false,
      "stateMutability": "view",
      "type": "function"
    },
    {
      "constant": false,
      "inputs": [
        {
          "internalType": "string",
          "name": "_Name",
          "type": "string"
        },
        {
          "internalType": "string",
          "name": "_Email",
          "type": "string"
        },
        {
          "internalType": "string",
          "name": "_PhoneNumber",
          "type": "string"
        },
        {
          "internalType": "string",
          "name": "_Address",
          "type": "string"
        },
        {
          "internalType": "string",
          "name": "_Hospitals",
          "type": "string"
        }
      ],
      "name": "setDetailsDoctor",
      "outputs": [],
      "payable": false,
      "stateMutability": "nonpayable",
      "type": "function"
    },
    {
      "constant": true,
      "inputs": [
        {
          "internalType": "address",
          "name": "user",
          "type": "address"
        }
      ],
      "name": "getDoctorDetails",
      "outputs": [
        {
          "components": [
            {
              "internalType": "string",
              "name": "Name",
              "type": "string"
            },
            {
              "internalType": "string",
              "name": "Email",
              "type": "string"
            },
            {
              "internalType": "string",
              "name": "PhoneNumber",
              "type": "string"
            },
            {
              "internalType": "string",
              "name": "Address",
              "type": "string"
            },
            {
              "internalType": "string",
              "name": "Hospitals",
              "type": "string"
            },
            {
              "internalType": "bool",
              "name": "isValue",
              "type": "bool"
            }
          ],
          "internalType": "struct doctor.DoctorDetails",
          "name": "",
          "type": "tuple"
        }
      ],
      "payable": false,
      "stateMutability": "view",
      "type": "function"
    },
    {
      "constant": true,
      "inputs": [
        {
          "internalType": "address",
          "name": "user",
          "type": "address"
        }
      ],
      "name": "Exists",
      "outputs": [
        {
          "internalType": "bool",
          "name": "exists",
          "type": "bool"
        }
      ],
      "payable": false,
      "stateMutability": "view",
      "type": "function"
    }
  ],
  "bytecode": "0x608060405234801561001057600080fd5b50610f3e806100206000396000f3fe608060405234801561001057600080fd5b506004361061004c5760003560e01c80630f029c9d14610051578063bab90dbd14610086578063cda981d5146100b6578063df9cd43c146100e6575b600080fd5b61006b60048036036100669190810190610abf565b610102565b60405161007d96959493929190610d27565b60405180910390f35b6100a0600480360361009b9190810190610abf565b610443565b6040516100ad9190610dab565b60405180910390f35b6100d060048036036100cb9190810190610abf565b6107e0565b6040516100dd9190610d0c565b60405180910390f35b61010060048036036100fb9190810190610ae8565b610850565b005b6000602052806000526040600020600091509050806000018054600181600116156101000203166002900480601f0160208091040260200160405190810160405280929190818152602001828054600181600116156101000203166002900480156101ae5780601f10610183576101008083540402835291602001916101ae565b820191906000526020600020905b81548152906001019060200180831161019157829003601f168201915b505050505090806001018054600181600116156101000203166002900480601f01602080910402602001604051908101604052809291908181526020018280546001816001161561010002031660029004801561024c5780601f106102215761010080835404028352916020019161024c565b820191906000526020600020905b81548152906001019060200180831161022f57829003601f168201915b505050505090806002018054600181600116156101000203166002900480601f0160208091040260200160405190810160405280929190818152602001828054600181600116156101000203166002900480156102ea5780601f106102bf576101008083540402835291602001916102ea565b820191906000526020600020905b8154815290600101906020018083116102cd57829003601f168201915b505050505090806003018054600181600116156101000203166002900480601f0160208091040260200160405190810160405280929190818152602001828054600181600116156101000203166002900480156103885780601f1061035d57610100808354040283529160200191610388565b820191906000526020600020905b81548152906001019060200180831161036b57829003601f168201915b505050505090806004018054600181600116156101000203166002900480601f0160208091040260200160405190810160405280929190818152602001828054600181600116156101000203166002900480156104265780601f106103fb57610100808354040283529160200191610426565b820191906000526020600020905b81548152906001019060200180831161040957829003601f168201915b5050505050908060050160009054906101000a900460ff16905086565b61044b610979565b6000808373ffffffffffffffffffffffffffffffffffffffff1673ffffffffffffffffffffffffffffffffffffffff1681526020019081526020016000206040518060c0016040529081600082018054600181600116156101000203166002900480601f01602080910402602001604051908101604052809291908181526020018280546001816001161561010002031660029004801561052d5780601f106105025761010080835404028352916020019161052d565b820191906000526020600020905b81548152906001019060200180831161051057829003601f168201915b50505050508152602001600182018054600181600116156101000203166002900480601f0160208091040260200160405190810160405280929190818152602001828054600181600116156101000203166002900480156105cf5780601f106105a4576101008083540402835291602001916105cf565b820191906000526020600020905b8154815290600101906020018083116105b257829003601f168201915b50505050508152602001600282018054600181600116156101000203166002900480601f0160208091040260200160405190810160405280929190818152602001828054600181600116156101000203166002900480156106715780601f1061064657610100808354040283529160200191610671565b820191906000526020600020905b81548152906001019060200180831161065457829003601f168201915b50505050508152602001600382018054600181600116156101000203166002900480601f0160208091040260200160405190810160405280929190818152602001828054600181600116156101000203166002900480156107135780601f106106e857610100808354040283529160200191610713565b820191906000526020600020905b8154815290600101906020018083116106f657829003601f168201915b50505050508152602001600482018054600181600116156101000203166002900480601f0160208091040260200160405190810160405280929190818152602001828054600181600116156101000203166002900480156107b55780601f1061078a576101008083540402835291602001916107b5565b820191906000526020600020905b81548152906001019060200180831161079857829003601f168201915b505050505081526020016005820160009054906101000a900460ff1615151515815250509050919050565b6000600115156000808473ffffffffffffffffffffffffffffffffffffffff1673ffffffffffffffffffffffffffffffffffffffff16815260200190815260200160002060050160009054906101000a900460ff1615151415610846576001905061084b565b600090505b919050565b6040518060c00160405280868152602001858152602001848152602001838152602001828152602001600115158152506000803373ffffffffffffffffffffffffffffffffffffffff1673ffffffffffffffffffffffffffffffffffffffff16815260200190815260200160002060008201518160000190805190602001906108da9291906109b1565b5060208201518160010190805190602001906108f79291906109b1565b5060408201518160020190805190602001906109149291906109b1565b5060608201518160030190805190602001906109319291906109b1565b50608082015181600401908051906020019061094e9291906109b1565b5060a08201518160050160006101000a81548160ff0219169083151502179055509050505050505050565b6040518060c0016040528060608152602001606081526020016060815260200160608152602001606081526020016000151581525090565b828054600181600116156101000203166002900490600052602060002090601f016020900481019282601f106109f257805160ff1916838001178555610a20565b82800160010185558215610a20579182015b82811115610a1f578251825591602001919060010190610a04565b5b509050610a2d9190610a31565b5090565b610a5391905b80821115610a4f576000816000905550600101610a37565b5090565b90565b600081359050610a6581610ee4565b92915050565b600082601f830112610a7c57600080fd5b8135610a8f610a8a82610dfa565b610dcd565b91508082526020830160208301858383011115610aab57600080fd5b610ab6838284610e91565b50505092915050565b600060208284031215610ad157600080fd5b6000610adf84828501610a56565b91505092915050565b600080600080600060a08688031215610b0057600080fd5b600086013567ffffffffffffffff811115610b1a57600080fd5b610b2688828901610a6b565b955050602086013567ffffffffffffffff811115610b4357600080fd5b610b4f88828901610a6b565b945050604086013567ffffffffffffffff811115610b6c57600080fd5b610b7888828901610a6b565b935050606086013567ffffffffffffffff811115610b9557600080fd5b610ba188828901610a6b565b925050608086013567ffffffffffffffff811115610bbe57600080fd5b610bca88828901610a6b565b9150509295509295909350565b610be081610e65565b82525050565b610bef81610e65565b82525050565b6000610c0082610e26565b610c0a8185610e31565b9350610c1a818560208601610ea0565b610c2381610ed3565b840191505092915050565b6000610c3982610e26565b610c438185610e42565b9350610c53818560208601610ea0565b610c5c81610ed3565b840191505092915050565b600060c0830160008301518482036000860152610c848282610bf5565b91505060208301518482036020860152610c9e8282610bf5565b91505060408301518482036040860152610cb88282610bf5565b91505060608301518482036060860152610cd28282610bf5565b91505060808301518482036080860152610cec8282610bf5565b91505060a0830151610d0160a0860182610bd7565b508091505092915050565b6000602082019050610d216000830184610be6565b92915050565b600060c0820190508181036000830152610d418189610c2e565b90508181036020830152610d558188610c2e565b90508181036040830152610d698187610c2e565b90508181036060830152610d7d8186610c2e565b90508181036080830152610d918185610c2e565b9050610da060a0830184610be6565b979650505050505050565b60006020820190508181036000830152610dc58184610c67565b905092915050565b6000604051905081810181811067ffffffffffffffff82111715610df057600080fd5b8060405250919050565b600067ffffffffffffffff821115610e1157600080fd5b601f19601f8301169050602081019050919050565b600081519050919050565b600082825260208201905092915050565b600082825260208201905092915050565b6000610e5e82610e71565b9050919050565b60008115159050919050565b600073ffffffffffffffffffffffffffffffffffffffff82169050919050565b82818337600083830152505050565b60005b83811015610ebe578082015181840152602081019050610ea3565b83811115610ecd576000848401525b50505050565b6000601f19601f8301169050919050565b610eed81610e53565b8114610ef857600080fd5b5056fea365627a7a72315820742724771de64b455339ae710f5a55eb6da26e2db9646853f93d06280e86a9396c6578706572696d656e74616cf564736f6c63430005100040",
  "source": "pragma solidity >=0.4.21 <0.6.0;\n// pragma solidity >=0.7.0 <0.9.0;\npragma experimental ABIEncoderV2;\n\n\ncontract doctor{\n\n    struct DoctorDetails{    \n        string Name;\n        string Email;\n        string PhoneNumber;\n        string Address; \n        string Hospitals;\n        bool isValue;\n    }\n   \n\n    mapping (address => DoctorDetails) public DoctorsList;\n\n    function setDetailsDoctor(string memory _Name, string memory _Email , \n                        string memory _PhoneNumber , string memory _Address, string memory _Hospitals) public {\n        DoctorsList[msg.sender] = DoctorDetails({\n            Name: _Name,            \n            Email: _Email,\n            PhoneNumber: _PhoneNumber,\n            Address: _Address,            \n            Hospitals: _Hospitals,\n            isValue: true         \n        });\n    }\n\n    function getDoctorDetails(address user) public view returns(DoctorDetails memory){\n        return DoctorsList[user];\n    }\n\n    function Exists(address user) public view returns(bool exists) {\n        if(DoctorsList[user].isValue == true) return true;\n        return false;\n    }\n\n\n\n\n}",
  "sourcePath": "/home/abhirampuranik/HealthcareSystem_Blockchain/src/contracts/doctor.sol",
  "compiler": {
    "name": "solc",
    "version": "0.5.16+commit.9c3226ce.Emscripten.clang"
  },
  "schemaVersion": "3.4.3",
  "updatedAt": "2021-11-10T08:03:16.978Z",
  "networkType": "ethereum",
  "devdoc": {
    "methods": {}
  },
  "userdoc": {
    "methods": {}
  }
}