{
  "contractName": "doctor",
  "abi": [
    {
      "constant": true,
      "inputs": [
        {
          "internalType": "address",
          "name": "",
          "type": "address"
        }
      ],
      "name": "DoctorsList",
      "outputs": [
        {
          "internalType": "string",
          "name": "Name",
          "type": "string"
        },
        {
          "internalType": "string",
          "name": "Email",
          "type": "string"
        },
        {
          "internalType": "string",
          "name": "PhoneNumber",
          "type": "string"
        },
        {
          "internalType": "string",
          "name": "Address",
          "type": "string"
        },
        {
          "internalType": "string",
          "name": "Hospitals",
          "type": "string"
        }
      ],
      "payable": false,
      "stateMutability": "view",
      "type": "function"
    },
    {
      "constant": false,
      "inputs": [
        {
          "internalType": "string",
          "name": "_Name",
          "type": "string"
        },
        {
          "internalType": "string",
          "name": "_Email",
          "type": "string"
        },
        {
          "internalType": "string",
          "name": "_PhoneNumber",
          "type": "string"
        },
        {
          "internalType": "string",
          "name": "_Address",
          "type": "string"
        },
        {
          "internalType": "string",
          "name": "_Hospitals",
          "type": "string"
        }
      ],
      "name": "setDetailsDoctor",
      "outputs": [],
      "payable": false,
      "stateMutability": "nonpayable",
      "type": "function"
    },
    {
      "constant": true,
      "inputs": [
        {
          "internalType": "address",
          "name": "user",
          "type": "address"
        }
      ],
      "name": "getDoctorDetails",
      "outputs": [
        {
          "components": [
            {
              "internalType": "string",
              "name": "Name",
              "type": "string"
            },
            {
              "internalType": "string",
              "name": "Email",
              "type": "string"
            },
            {
              "internalType": "string",
              "name": "PhoneNumber",
              "type": "string"
            },
            {
              "internalType": "string",
              "name": "Address",
              "type": "string"
            },
            {
              "internalType": "string",
              "name": "Hospitals",
              "type": "string"
            }
          ],
          "internalType": "struct doctor.DoctorDetails",
          "name": "",
          "type": "tuple"
        }
      ],
      "payable": false,
      "stateMutability": "view",
      "type": "function"
    }
  ],
  "bytecode": "0x608060405234801561001057600080fd5b50610dcc806100206000396000f3fe608060405234801561001057600080fd5b50600436106100415760003560e01c80630f029c9d14610046578063bab90dbd1461007a578063df9cd43c146100aa575b600080fd5b610060600480360361005b91908101906109b3565b6100c6565b604051610071959493929190610bcf565b60405180910390f35b610094600480360361008f91908101906109b3565b6103f4565b6040516100a19190610c45565b60405180910390f35b6100c460048036036100bf91908101906109dc565b610776565b005b6000602052806000526040600020600091509050806000018054600181600116156101000203166002900480601f0160208091040260200160405190810160405280929190818152602001828054600181600116156101000203166002900480156101725780601f1061014757610100808354040283529160200191610172565b820191906000526020600020905b81548152906001019060200180831161015557829003601f168201915b505050505090806001018054600181600116156101000203166002900480601f0160208091040260200160405190810160405280929190818152602001828054600181600116156101000203166002900480156102105780601f106101e557610100808354040283529160200191610210565b820191906000526020600020905b8154815290600101906020018083116101f357829003601f168201915b505050505090806002018054600181600116156101000203166002900480601f0160208091040260200160405190810160405280929190818152602001828054600181600116156101000203166002900480156102ae5780601f10610283576101008083540402835291602001916102ae565b820191906000526020600020905b81548152906001019060200180831161029157829003601f168201915b505050505090806003018054600181600116156101000203166002900480601f01602080910402602001604051908101604052809291908181526020018280546001816001161561010002031660029004801561034c5780601f106103215761010080835404028352916020019161034c565b820191906000526020600020905b81548152906001019060200180831161032f57829003601f168201915b505050505090806004018054600181600116156101000203166002900480601f0160208091040260200160405190810160405280929190818152602001828054600181600116156101000203166002900480156103ea5780601f106103bf576101008083540402835291602001916103ea565b820191906000526020600020905b8154815290600101906020018083116103cd57829003601f168201915b5050505050905085565b6103fc610876565b6000808373ffffffffffffffffffffffffffffffffffffffff1673ffffffffffffffffffffffffffffffffffffffff1681526020019081526020016000206040518060a0016040529081600082018054600181600116156101000203166002900480601f0160208091040260200160405190810160405280929190818152602001828054600181600116156101000203166002900480156104de5780601f106104b3576101008083540402835291602001916104de565b820191906000526020600020905b8154815290600101906020018083116104c157829003601f168201915b50505050508152602001600182018054600181600116156101000203166002900480601f0160208091040260200160405190810160405280929190818152602001828054600181600116156101000203166002900480156105805780601f1061055557610100808354040283529160200191610580565b820191906000526020600020905b81548152906001019060200180831161056357829003601f168201915b50505050508152602001600282018054600181600116156101000203166002900480601f0160208091040260200160405190810160405280929190818152602001828054600181600116156101000203166002900480156106225780601f106105f757610100808354040283529160200191610622565b820191906000526020600020905b81548152906001019060200180831161060557829003601f168201915b50505050508152602001600382018054600181600116156101000203166002900480601f0160208091040260200160405190810160405280929190818152602001828054600181600116156101000203166002900480156106c45780601f10610699576101008083540402835291602001916106c4565b820191906000526020600020905b8154815290600101906020018083116106a757829003601f168201915b50505050508152602001600482018054600181600116156101000203166002900480601f0160208091040260200160405190810160405280929190818152602001828054600181600116156101000203166002900480156107665780601f1061073b57610100808354040283529160200191610766565b820191906000526020600020905b81548152906001019060200180831161074957829003601f168201915b5050505050815250509050919050565b6040518060a00160405280868152602001858152602001848152602001838152602001828152506000803373ffffffffffffffffffffffffffffffffffffffff1673ffffffffffffffffffffffffffffffffffffffff16815260200190815260200160002060008201518160000190805190602001906107f79291906108a5565b5060208201518160010190805190602001906108149291906108a5565b5060408201518160020190805190602001906108319291906108a5565b50606082015181600301908051906020019061084e9291906108a5565b50608082015181600401908051906020019061086b9291906108a5565b509050505050505050565b6040518060a0016040528060608152602001606081526020016060815260200160608152602001606081525090565b828054600181600116156101000203166002900490600052602060002090601f016020900481019282601f106108e657805160ff1916838001178555610914565b82800160010185558215610914579182015b828111156109135782518255916020019190600101906108f8565b5b5090506109219190610925565b5090565b61094791905b8082111561094357600081600090555060010161092b565b5090565b90565b60008135905061095981610d72565b92915050565b600082601f83011261097057600080fd5b813561098361097e82610c94565b610c67565b9150808252602083016020830185838301111561099f57600080fd5b6109aa838284610d1f565b50505092915050565b6000602082840312156109c557600080fd5b60006109d38482850161094a565b91505092915050565b600080600080600060a086880312156109f457600080fd5b600086013567ffffffffffffffff811115610a0e57600080fd5b610a1a8882890161095f565b955050602086013567ffffffffffffffff811115610a3757600080fd5b610a438882890161095f565b945050604086013567ffffffffffffffff811115610a6057600080fd5b610a6c8882890161095f565b935050606086013567ffffffffffffffff811115610a8957600080fd5b610a958882890161095f565b925050608086013567ffffffffffffffff811115610ab257600080fd5b610abe8882890161095f565b9150509295509295909350565b6000610ad682610cc0565b610ae08185610ccb565b9350610af0818560208601610d2e565b610af981610d61565b840191505092915050565b6000610b0f82610cc0565b610b198185610cdc565b9350610b29818560208601610d2e565b610b3281610d61565b840191505092915050565b600060a0830160008301518482036000860152610b5a8282610acb565b91505060208301518482036020860152610b748282610acb565b91505060408301518482036040860152610b8e8282610acb565b91505060608301518482036060860152610ba88282610acb565b91505060808301518482036080860152610bc28282610acb565b9150508091505092915050565b600060a0820190508181036000830152610be98188610b04565b90508181036020830152610bfd8187610b04565b90508181036040830152610c118186610b04565b90508181036060830152610c258185610b04565b90508181036080830152610c398184610b04565b90509695505050505050565b60006020820190508181036000830152610c5f8184610b3d565b905092915050565b6000604051905081810181811067ffffffffffffffff82111715610c8a57600080fd5b8060405250919050565b600067ffffffffffffffff821115610cab57600080fd5b601f19601f8301169050602081019050919050565b600081519050919050565b600082825260208201905092915050565b600082825260208201905092915050565b6000610cf882610cff565b9050919050565b600073ffffffffffffffffffffffffffffffffffffffff82169050919050565b82818337600083830152505050565b60005b83811015610d4c578082015181840152602081019050610d31565b83811115610d5b576000848401525b50505050565b6000601f19601f8301169050919050565b610d7b81610ced565b8114610d8657600080fd5b5056fea365627a7a72315820141860c8df337aa35ef429e868a539fd0d54151a462def030f9bc4bf350ea2736c6578706572696d656e74616cf564736f6c63430005100040",
  "source": "pragma solidity >=0.4.21 <0.6.0;\n// pragma solidity >=0.7.0 <0.9.0;\npragma experimental ABIEncoderV2;\n\n\ncontract doctor{\n\n    struct DoctorDetails{    \n        string Name;\n        string Email;\n        string PhoneNumber;\n        string Address; \n        string Hospitals;    \n    }\n   \n\n    mapping (address => DoctorDetails) public DoctorsList;\n\n    function setDetailsDoctor(string memory _Name, string memory _Email , \n                        string memory _PhoneNumber , string memory _Address, string memory _Hospitals) public {\n        DoctorsList[msg.sender] = DoctorDetails({\n            Name: _Name,            \n            Email: _Email,\n            PhoneNumber: _PhoneNumber,\n            Address: _Address,            \n            Hospitals: _Hospitals           \n        });\n    }\n\n    function getDoctorDetails(address user) public view returns(DoctorDetails memory){\n        return DoctorsList[user];\n    }\n}",
  "sourcePath": "/home/abhirampuranik/HealthcareSystem_Blockchain/src/contracts/doctor.sol",
  "compiler": {
    "name": "solc",
    "version": "0.5.16+commit.9c3226ce.Emscripten.clang"
  },
  "schemaVersion": "3.4.3",
  "updatedAt": "2021-11-09T18:51:17.932Z",
  "networkType": "ethereum",
  "devdoc": {
    "methods": {}
  },
  "userdoc": {
    "methods": {}
  }
}