{
  "contractName": "document1",
  "abi": [
    {
      "constant": true,
      "inputs": [
        {
          "internalType": "address",
          "name": "",
          "type": "address"
        }
      ],
      "name": "GroupOfPatients",
      "outputs": [
        {
          "internalType": "string",
          "name": "Name",
          "type": "string"
        },
        {
          "internalType": "uint256",
          "name": "Age",
          "type": "uint256"
        },
        {
          "internalType": "uint256",
          "name": "AadhaarNumber",
          "type": "uint256"
        },
        {
          "internalType": "string",
          "name": "Email",
          "type": "string"
        },
        {
          "internalType": "string",
          "name": "PhoneNumber",
          "type": "string"
        },
        {
          "internalType": "string",
          "name": "Address",
          "type": "string"
        },
        {
          "internalType": "string",
          "name": "BloodGroup",
          "type": "string"
        },
        {
          "internalType": "string",
          "name": "HealthConditions",
          "type": "string"
        },
        {
          "internalType": "string",
          "name": "HospitalsAttended",
          "type": "string"
        }
      ],
      "payable": false,
      "stateMutability": "view",
      "type": "function"
    },
    {
      "constant": false,
      "inputs": [
        {
          "internalType": "string",
          "name": "_Name",
          "type": "string"
        },
        {
          "internalType": "uint256",
          "name": "_Age",
          "type": "uint256"
        },
        {
          "internalType": "uint256",
          "name": "_AadhaarNumber",
          "type": "uint256"
        },
        {
          "internalType": "string",
          "name": "_Email",
          "type": "string"
        },
        {
          "internalType": "string",
          "name": "_PhoneNumber",
          "type": "string"
        },
        {
          "internalType": "string",
          "name": "_Address",
          "type": "string"
        },
        {
          "internalType": "string",
          "name": "_BloodGroup",
          "type": "string"
        },
        {
          "internalType": "string",
          "name": "_HealthConditions",
          "type": "string"
        },
        {
          "internalType": "string",
          "name": "_HospitalsAttended",
          "type": "string"
        }
      ],
      "name": "setDetails",
      "outputs": [],
      "payable": false,
      "stateMutability": "nonpayable",
      "type": "function"
    },
    {
      "constant": false,
      "inputs": [
        {
          "internalType": "string",
          "name": "_fileHash",
          "type": "string"
        }
      ],
      "name": "addDocument",
      "outputs": [],
      "payable": false,
      "stateMutability": "nonpayable",
      "type": "function"
    },
    {
      "constant": true,
      "inputs": [
        {
          "internalType": "address",
          "name": "user",
          "type": "address"
        }
      ],
      "name": "getDocuments",
      "outputs": [
        {
          "internalType": "string[]",
          "name": "",
          "type": "string[]"
        }
      ],
      "payable": false,
      "stateMutability": "view",
      "type": "function"
    },
    {
      "constant": true,
      "inputs": [
        {
          "internalType": "address",
          "name": "user",
          "type": "address"
        }
      ],
      "name": "getUserDetails",
      "outputs": [
        {
          "components": [
            {
              "internalType": "string",
              "name": "Name",
              "type": "string"
            },
            {
              "internalType": "uint256",
              "name": "Age",
              "type": "uint256"
            },
            {
              "internalType": "uint256",
              "name": "AadhaarNumber",
              "type": "uint256"
            },
            {
              "internalType": "string",
              "name": "Email",
              "type": "string"
            },
            {
              "internalType": "string",
              "name": "PhoneNumber",
              "type": "string"
            },
            {
              "internalType": "string",
              "name": "Address",
              "type": "string"
            },
            {
              "internalType": "string",
              "name": "BloodGroup",
              "type": "string"
            },
            {
              "internalType": "string",
              "name": "HealthConditions",
              "type": "string"
            },
            {
              "internalType": "string",
              "name": "HospitalsAttended",
              "type": "string"
            },
            {
              "internalType": "string[]",
              "name": "FileHashes",
              "type": "string[]"
            }
          ],
          "internalType": "struct document1.PatientDetails",
          "name": "",
          "type": "tuple"
        }
      ],
      "payable": false,
      "stateMutability": "view",
      "type": "function"
    }
  ],
  "bytecode": "0x608060405234801561001057600080fd5b506119b7806100206000396000f3fe608060405234801561001057600080fd5b50600436106100575760003560e01c806327f50a2d1461005c5780632ff443821461008c5780638fa41957146100c4578063cc3d967b146100e0578063f740e04514610110575b600080fd5b6100766004803603610071919081019061124c565b61012c565b60405161008391906116bd565b60405180910390f35b6100a660048036036100a1919081019061124c565b610256565b6040516100bb999897969594939291906116df565b60405180910390f35b6100de60048036036100d991908101906112b6565b6106cc565b005b6100fa60048036036100f5919081019061124c565b61093d565b604051610107919061179d565b60405180910390f35b61012a60048036036101259190810190611275565b610f01565b005b60606000808373ffffffffffffffffffffffffffffffffffffffff1673ffffffffffffffffffffffffffffffffffffffff168152602001908152602001600020600901805480602002602001604051908101604052809291908181526020016000905b8282101561024b578382906000526020600020018054600181600116156101000203166002900480601f0160208091040260200160405190810160405280929190818152602001828054600181600116156101000203166002900480156102375780601f1061020c57610100808354040283529160200191610237565b820191906000526020600020905b81548152906001019060200180831161021a57829003601f168201915b50505050508152602001906001019061018f565b505050509050919050565b6000602052806000526040600020600091509050806000018054600181600116156101000203166002900480601f0160208091040260200160405190810160405280929190818152602001828054600181600116156101000203166002900480156103025780601f106102d757610100808354040283529160200191610302565b820191906000526020600020905b8154815290600101906020018083116102e557829003601f168201915b505050505090806001015490806002015490806003018054600181600116156101000203166002900480601f0160208091040260200160405190810160405280929190818152602001828054600181600116156101000203166002900480156103ac5780601f10610381576101008083540402835291602001916103ac565b820191906000526020600020905b81548152906001019060200180831161038f57829003601f168201915b505050505090806004018054600181600116156101000203166002900480601f01602080910402602001604051908101604052809291908181526020018280546001816001161561010002031660029004801561044a5780601f1061041f5761010080835404028352916020019161044a565b820191906000526020600020905b81548152906001019060200180831161042d57829003601f168201915b505050505090806005018054600181600116156101000203166002900480601f0160208091040260200160405190810160405280929190818152602001828054600181600116156101000203166002900480156104e85780601f106104bd576101008083540402835291602001916104e8565b820191906000526020600020905b8154815290600101906020018083116104cb57829003601f168201915b505050505090806006018054600181600116156101000203166002900480601f0160208091040260200160405190810160405280929190818152602001828054600181600116156101000203166002900480156105865780601f1061055b57610100808354040283529160200191610586565b820191906000526020600020905b81548152906001019060200180831161056957829003601f168201915b505050505090806007018054600181600116156101000203166002900480601f0160208091040260200160405190810160405280929190818152602001828054600181600116156101000203166002900480156106245780601f106105f957610100808354040283529160200191610624565b820191906000526020600020905b81548152906001019060200180831161060757829003601f168201915b505050505090806008018054600181600116156101000203166002900480601f0160208091040260200160405190810160405280929190818152602001828054600181600116156101000203166002900480156106c25780601f10610697576101008083540402835291602001916106c2565b820191906000526020600020905b8154815290600101906020018083116106a557829003601f168201915b5050505050905089565b6040518061014001604052808a81526020018981526020018881526020018781526020018681526020018581526020018481526020018381526020018281526020016001805480602002602001604051908101604052809291908181526020016000905b828210156107ec578382906000526020600020018054600181600116156101000203166002900480601f0160208091040260200160405190810160405280929190818152602001828054600181600116156101000203166002900480156107d85780601f106107ad576101008083540402835291602001916107d8565b820191906000526020600020905b8154815290600101906020018083116107bb57829003601f168201915b505050505081526020019060010190610730565b505050508152506000803373ffffffffffffffffffffffffffffffffffffffff1673ffffffffffffffffffffffffffffffffffffffff168152602001908152602001600020600082015181600001908051906020019061084d929190610f82565b506020820151816001015560408201518160020155606082015181600301908051906020019061087e929190610f82565b50608082015181600401908051906020019061089b929190610f82565b5060a08201518160050190805190602001906108b8929190610f82565b5060c08201518160060190805190602001906108d5929190610f82565b5060e08201518160070190805190602001906108f2929190610f82565b50610100820151816008019080519060200190610910929190610f82565b5061012082015181600901908051906020019061092e929190611002565b50905050505050505050505050565b610945611062565b6000808373ffffffffffffffffffffffffffffffffffffffff1673ffffffffffffffffffffffffffffffffffffffff16815260200190815260200160002060405180610140016040529081600082018054600181600116156101000203166002900480601f016020809104026020016040519081016040528092919081815260200182805460018160011615610100020316600290048015610a285780601f106109fd57610100808354040283529160200191610a28565b820191906000526020600020905b815481529060010190602001808311610a0b57829003601f168201915b505050505081526020016001820154815260200160028201548152602001600382018054600181600116156101000203166002900480601f016020809104026020016040519081016040528092919081815260200182805460018160011615610100020316600290048015610ade5780601f10610ab357610100808354040283529160200191610ade565b820191906000526020600020905b815481529060010190602001808311610ac157829003601f168201915b50505050508152602001600482018054600181600116156101000203166002900480601f016020809104026020016040519081016040528092919081815260200182805460018160011615610100020316600290048015610b805780601f10610b5557610100808354040283529160200191610b80565b820191906000526020600020905b815481529060010190602001808311610b6357829003601f168201915b50505050508152602001600582018054600181600116156101000203166002900480601f016020809104026020016040519081016040528092919081815260200182805460018160011615610100020316600290048015610c225780601f10610bf757610100808354040283529160200191610c22565b820191906000526020600020905b815481529060010190602001808311610c0557829003601f168201915b50505050508152602001600682018054600181600116156101000203166002900480601f016020809104026020016040519081016040528092919081815260200182805460018160011615610100020316600290048015610cc45780601f10610c9957610100808354040283529160200191610cc4565b820191906000526020600020905b815481529060010190602001808311610ca757829003601f168201915b50505050508152602001600782018054600181600116156101000203166002900480601f016020809104026020016040519081016040528092919081815260200182805460018160011615610100020316600290048015610d665780601f10610d3b57610100808354040283529160200191610d66565b820191906000526020600020905b815481529060010190602001808311610d4957829003601f168201915b50505050508152602001600882018054600181600116156101000203166002900480601f016020809104026020016040519081016040528092919081815260200182805460018160011615610100020316600290048015610e085780601f10610ddd57610100808354040283529160200191610e08565b820191906000526020600020905b815481529060010190602001808311610deb57829003601f168201915b5050505050815260200160098201805480602002602001604051908101604052809291908181526020016000905b82821015610ef2578382906000526020600020018054600181600116156101000203166002900480601f016020809104026020016040519081016040528092919081815260200182805460018160011615610100020316600290048015610ede5780601f10610eb357610100808354040283529160200191610ede565b820191906000526020600020905b815481529060010190602001808311610ec157829003601f168201915b505050505081526020019060010190610e36565b50505050815250509050919050565b6000803373ffffffffffffffffffffffffffffffffffffffff1673ffffffffffffffffffffffffffffffffffffffff168152602001908152602001600020600901819080600181540180825580915050906001820390600052602060002001600090919290919091509080519060200190610f7d9291906110b5565b505050565b828054600181600116156101000203166002900490600052602060002090601f016020900481019282601f10610fc357805160ff1916838001178555610ff1565b82800160010185558215610ff1579182015b82811115610ff0578251825591602001919060010190610fd5565b5b509050610ffe9190611135565b5090565b828054828255906000526020600020908101928215611051579160200282015b82811115611050578251829080519060200190611040929190610f82565b5091602001919060010190611022565b5b50905061105e919061115a565b5090565b604051806101400160405280606081526020016000815260200160008152602001606081526020016060815260200160608152602001606081526020016060815260200160608152602001606081525090565b828054600181600116156101000203166002900490600052602060002090601f016020900481019282601f106110f657805160ff1916838001178555611124565b82800160010185558215611124579182015b82811115611123578251825591602001919060010190611108565b5b5090506111319190611135565b5090565b61115791905b8082111561115357600081600090555060010161113b565b5090565b90565b61118391905b8082111561117f57600081816111769190611186565b50600101611160565b5090565b90565b50805460018160011615610100020316600290046000825580601f106111ac57506111cb565b601f0160209004906000526020600020908101906111ca9190611135565b5b50565b6000813590506111dd81611946565b92915050565b600082601f8301126111f457600080fd5b8135611207611202826117ec565b6117bf565b9150808252602083016020830185838301111561122357600080fd5b61122e8382846118f3565b50505092915050565b6000813590506112468161195d565b92915050565b60006020828403121561125e57600080fd5b600061126c848285016111ce565b91505092915050565b60006020828403121561128757600080fd5b600082013567ffffffffffffffff8111156112a157600080fd5b6112ad848285016111e3565b91505092915050565b60008060008060008060008060006101208a8c0312156112d557600080fd5b60008a013567ffffffffffffffff8111156112ef57600080fd5b6112fb8c828d016111e3565b995050602061130c8c828d01611237565b985050604061131d8c828d01611237565b97505060608a013567ffffffffffffffff81111561133a57600080fd5b6113468c828d016111e3565b96505060808a013567ffffffffffffffff81111561136357600080fd5b61136f8c828d016111e3565b95505060a08a013567ffffffffffffffff81111561138c57600080fd5b6113988c828d016111e3565b94505060c08a013567ffffffffffffffff8111156113b557600080fd5b6113c18c828d016111e3565b93505060e08a013567ffffffffffffffff8111156113de57600080fd5b6113ea8c828d016111e3565b9250506101008a013567ffffffffffffffff81111561140857600080fd5b6114148c828d016111e3565b9150509295985092959850929598565b60006114308383611522565b905092915050565b600061144382611843565b61144d8185611884565b93508360208202850161145f85611828565b8060005b8581101561149b578484038952815161147c8582611424565b945061148783611866565b925060208a01995050600181019050611463565b50829750879550505050505092915050565b60006114b882611838565b6114c28185611873565b9350836020820285016114d485611818565b8060005b8581101561151057848403895281516114f18582611424565b94506114fc83611859565b925060208a019950506001810190506114d8565b50829750879550505050505092915050565b600061152d8261184e565b6115378185611895565b9350611547818560208601611902565b61155081611935565b840191505092915050565b60006115668261184e565b61157081856118a6565b9350611580818560208601611902565b61158981611935565b840191505092915050565b60006101408301600083015184820360008601526115b28282611522565b91505060208301516115c7602086018261169f565b5060408301516115da604086018261169f565b50606083015184820360608601526115f28282611522565b9150506080830151848203608086015261160c8282611522565b91505060a083015184820360a08601526116268282611522565b91505060c083015184820360c08601526116408282611522565b91505060e083015184820360e086015261165a8282611522565b9150506101008301518482036101008601526116768282611522565b91505061012083015184820361012086015261169282826114ad565b9150508091505092915050565b6116a8816118e9565b82525050565b6116b7816118e9565b82525050565b600060208201905081810360008301526116d78184611438565b905092915050565b60006101208201905081810360008301526116fa818c61155b565b9050611709602083018b6116ae565b611716604083018a6116ae565b8181036060830152611728818961155b565b9050818103608083015261173c818861155b565b905081810360a0830152611750818761155b565b905081810360c0830152611764818661155b565b905081810360e0830152611778818561155b565b905081810361010083015261178d818461155b565b90509a9950505050505050505050565b600060208201905081810360008301526117b78184611594565b905092915050565b6000604051905081810181811067ffffffffffffffff821117156117e257600080fd5b8060405250919050565b600067ffffffffffffffff82111561180357600080fd5b601f19601f8301169050602081019050919050565b6000819050602082019050919050565b6000819050602082019050919050565b600081519050919050565b600081519050919050565b600081519050919050565b6000602082019050919050565b6000602082019050919050565b600082825260208201905092915050565b600082825260208201905092915050565b600082825260208201905092915050565b600082825260208201905092915050565b60006118c2826118c9565b9050919050565b600073ffffffffffffffffffffffffffffffffffffffff82169050919050565b6000819050919050565b82818337600083830152505050565b60005b83811015611920578082015181840152602081019050611905565b8381111561192f576000848401525b50505050565b6000601f19601f8301169050919050565b61194f816118b7565b811461195a57600080fd5b50565b611966816118e9565b811461197157600080fd5b5056fea365627a7a723158208c378a3fd93eb13822037c8002dd52f05cb201e529596985f5ee4f98840d61a66c6578706572696d656e74616cf564736f6c63430005100040",
  "source": "pragma solidity >=0.4.21 <0.6.0;\n// pragma solidity >=0.7.0 <0.9.0;\npragma experimental ABIEncoderV2;\n\n\n\n\ncontract document1{\n\n    struct PatientDetails{\n    \n    string Name;\n    uint Age;\n    uint AadhaarNumber;\n    string Email;\n    string PhoneNumber;\n    string Address;\n    string BloodGroup;\n    string HealthConditions;\n    string HospitalsAttended;\n    string[] FileHashes;\n    }\n\n\n    // PatientDetails[] public GroupOfPatients;\n    // mapping (address => string[]) public documents;\n    // mapping (address => string[]) public username;\n\n    // mapping(address => mapping(string => string)) details;\n\n    mapping (address => PatientDetails) public GroupOfPatients;\n\n    string[] emptyStringArray;\n\n    function setDetails(string memory _Name, uint _Age, uint _AadhaarNumber , string memory _Email , \n                        string memory _PhoneNumber , string memory _Address , string memory _BloodGroup, \n                        string memory _HealthConditions, string memory _HospitalsAttended) public {\n        GroupOfPatients[msg.sender] = PatientDetails({\n            Name: _Name,\n            Age: _Age,\n            AadhaarNumber: _AadhaarNumber,\n            Email: _Email,\n            PhoneNumber: _PhoneNumber,\n            Address: _Address,\n            BloodGroup: _BloodGroup,\n            HealthConditions: _HealthConditions,\n            HospitalsAttended: _HospitalsAttended,\n            FileHashes: emptyStringArray\n\n            \n        });\n    }\n\n    \n\n\n    //write function\n    function addDocument(string memory _fileHash) public {\n        GroupOfPatients[msg.sender].FileHashes.push(_fileHash);\n    }\n\n    // function addUserDetails(string memory _username) public {\n    //     address from = msg.sender;\n    //     username[from].push(_username);\n    // }\n\n\n    //read function\n    function getDocuments(address user) public view returns(string[] memory){\n        return GroupOfPatients[user].FileHashes;\n    }\n\n    function getUserDetails(address user) public view returns(PatientDetails memory){\n        return GroupOfPatients[user];\n    }\n}",
  "sourcePath": "/home/akanksha/medi_records/src/contracts/document1.sol",
  "compiler": {
    "name": "solc",
    "version": "0.5.16+commit.9c3226ce.Emscripten.clang"
  },
  "schemaVersion": "3.4.3",
  "updatedAt": "2021-11-09T16:11:01.824Z",
  "networkType": "ethereum",
  "devdoc": {
    "methods": {}
  },
  "userdoc": {
    "methods": {}
  }
}