{
  "contractName": "document1",
  "abi": [
    {
      "constant": true,
      "inputs": [
        {
          "internalType": "address",
          "name": "",
          "type": "address"
        }
      ],
      "name": "GroupOfPatients",
      "outputs": [
        {
          "internalType": "string",
          "name": "Name",
          "type": "string"
        },
        {
          "internalType": "uint256",
          "name": "Age",
          "type": "uint256"
        },
        {
          "internalType": "uint256",
          "name": "AadhaarNumber",
          "type": "uint256"
        },
        {
          "internalType": "string",
          "name": "Email",
          "type": "string"
        },
        {
          "internalType": "string",
          "name": "PhoneNumber",
          "type": "string"
        },
        {
          "internalType": "string",
          "name": "Address",
          "type": "string"
        },
        {
          "internalType": "string",
          "name": "BloodGroup",
          "type": "string"
        },
        {
          "internalType": "string",
          "name": "HealthConditions",
          "type": "string"
        },
        {
          "internalType": "string",
          "name": "HospitalsAttended",
          "type": "string"
        },
        {
          "internalType": "string",
          "name": "AdditionalDetails",
          "type": "string"
        }
      ],
      "payable": false,
      "stateMutability": "view",
      "type": "function"
    },
    {
      "constant": false,
      "inputs": [
        {
          "internalType": "string",
          "name": "_Name",
          "type": "string"
        },
        {
          "internalType": "uint256",
          "name": "_Age",
          "type": "uint256"
        },
        {
          "internalType": "uint256",
          "name": "_AadhaarNumber",
          "type": "uint256"
        },
        {
          "internalType": "string",
          "name": "_Email",
          "type": "string"
        },
        {
          "internalType": "string",
          "name": "_PhoneNumber",
          "type": "string"
        },
        {
          "internalType": "string",
          "name": "_Address",
          "type": "string"
        },
        {
          "internalType": "string",
          "name": "_BloodGroup",
          "type": "string"
        },
        {
          "internalType": "string",
          "name": "_HealthCondtions",
          "type": "string"
        },
        {
          "internalType": "string",
          "name": "_HospitalsAttended",
          "type": "string"
        },
        {
          "internalType": "string",
          "name": "_AdditionalDetails",
          "type": "string"
        }
      ],
      "name": "setDetails",
      "outputs": [],
      "payable": false,
      "stateMutability": "nonpayable",
      "type": "function"
    },
    {
      "constant": true,
      "inputs": [
        {
          "internalType": "address",
          "name": "user",
          "type": "address"
        }
      ],
      "name": "getUserDetails",
      "outputs": [
        {
          "components": [
            {
              "internalType": "string",
              "name": "Name",
              "type": "string"
            },
            {
              "internalType": "uint256",
              "name": "Age",
              "type": "uint256"
            },
            {
              "internalType": "uint256",
              "name": "AadhaarNumber",
              "type": "uint256"
            },
            {
              "internalType": "string",
              "name": "Email",
              "type": "string"
            },
            {
              "internalType": "string",
              "name": "PhoneNumber",
              "type": "string"
            },
            {
              "internalType": "string",
              "name": "Address",
              "type": "string"
            },
            {
              "internalType": "string",
              "name": "BloodGroup",
              "type": "string"
            },
            {
              "internalType": "string",
              "name": "HealthConditions",
              "type": "string"
            },
            {
              "internalType": "string",
              "name": "HospitalsAttended",
              "type": "string"
            },
            {
              "internalType": "string",
              "name": "AdditionalDetails",
              "type": "string"
            }
          ],
          "internalType": "struct document1.PatientDetails",
          "name": "",
          "type": "tuple"
        }
      ],
      "payable": false,
      "stateMutability": "view",
      "type": "function"
    }
  ],
  "bytecode": "0x608060405234801561001057600080fd5b5061143e806100206000396000f3fe608060405234801561001057600080fd5b50600436106100415760003560e01c80632ff44382146100465780637ad269701461007f578063cc3d967b1461009b575b600080fd5b610060600480360361005b9190810190610e63565b6100cb565b6040516100769a999897969594939291906111c2565b60405180910390f35b61009960048036036100949190810190610e8c565b6105df565b005b6100b560048036036100b09190810190610e63565b610770565b6040516100c29190611296565b60405180910390f35b6000602052806000526040600020600091509050806000018054600181600116156101000203166002900480601f0160208091040260200160405190810160405280929190818152602001828054600181600116156101000203166002900480156101775780601f1061014c57610100808354040283529160200191610177565b820191906000526020600020905b81548152906001019060200180831161015a57829003601f168201915b505050505090806001015490806002015490806003018054600181600116156101000203166002900480601f0160208091040260200160405190810160405280929190818152602001828054600181600116156101000203166002900480156102215780601f106101f657610100808354040283529160200191610221565b820191906000526020600020905b81548152906001019060200180831161020457829003601f168201915b505050505090806004018054600181600116156101000203166002900480601f0160208091040260200160405190810160405280929190818152602001828054600181600116156101000203166002900480156102bf5780601f10610294576101008083540402835291602001916102bf565b820191906000526020600020905b8154815290600101906020018083116102a257829003601f168201915b505050505090806005018054600181600116156101000203166002900480601f01602080910402602001604051908101604052809291908181526020018280546001816001161561010002031660029004801561035d5780601f106103325761010080835404028352916020019161035d565b820191906000526020600020905b81548152906001019060200180831161034057829003601f168201915b505050505090806006018054600181600116156101000203166002900480601f0160208091040260200160405190810160405280929190818152602001828054600181600116156101000203166002900480156103fb5780601f106103d0576101008083540402835291602001916103fb565b820191906000526020600020905b8154815290600101906020018083116103de57829003601f168201915b505050505090806007018054600181600116156101000203166002900480601f0160208091040260200160405190810160405280929190818152602001828054600181600116156101000203166002900480156104995780601f1061046e57610100808354040283529160200191610499565b820191906000526020600020905b81548152906001019060200180831161047c57829003601f168201915b505050505090806008018054600181600116156101000203166002900480601f0160208091040260200160405190810160405280929190818152602001828054600181600116156101000203166002900480156105375780601f1061050c57610100808354040283529160200191610537565b820191906000526020600020905b81548152906001019060200180831161051a57829003601f168201915b505050505090806009018054600181600116156101000203166002900480601f0160208091040260200160405190810160405280929190818152602001828054600181600116156101000203166002900480156105d55780601f106105aa576101008083540402835291602001916105d5565b820191906000526020600020905b8154815290600101906020018083116105b857829003601f168201915b505050505090508a565b6040518061014001604052808b81526020018a8152602001898152602001888152602001878152602001868152602001858152602001848152602001838152602001828152506000803373ffffffffffffffffffffffffffffffffffffffff1673ffffffffffffffffffffffffffffffffffffffff168152602001908152602001600020600082015181600001908051906020019061067f929190610ced565b50602082015181600101556040820151816002015560608201518160030190805190602001906106b0929190610ced565b5060808201518160040190805190602001906106cd929190610ced565b5060a08201518160050190805190602001906106ea929190610ced565b5060c0820151816006019080519060200190610707929190610ced565b5060e0820151816007019080519060200190610724929190610ced565b50610100820151816008019080519060200190610742929190610ced565b50610120820151816009019080519060200190610760929190610ced565b5090505050505050505050505050565b610778610d6d565b6000808373ffffffffffffffffffffffffffffffffffffffff1673ffffffffffffffffffffffffffffffffffffffff16815260200190815260200160002060405180610140016040529081600082018054600181600116156101000203166002900480601f01602080910402602001604051908101604052809291908181526020018280546001816001161561010002031660029004801561085b5780601f106108305761010080835404028352916020019161085b565b820191906000526020600020905b81548152906001019060200180831161083e57829003601f168201915b505050505081526020016001820154815260200160028201548152602001600382018054600181600116156101000203166002900480601f0160208091040260200160405190810160405280929190818152602001828054600181600116156101000203166002900480156109115780601f106108e657610100808354040283529160200191610911565b820191906000526020600020905b8154815290600101906020018083116108f457829003601f168201915b50505050508152602001600482018054600181600116156101000203166002900480601f0160208091040260200160405190810160405280929190818152602001828054600181600116156101000203166002900480156109b35780601f10610988576101008083540402835291602001916109b3565b820191906000526020600020905b81548152906001019060200180831161099657829003601f168201915b50505050508152602001600582018054600181600116156101000203166002900480601f016020809104026020016040519081016040528092919081815260200182805460018160011615610100020316600290048015610a555780601f10610a2a57610100808354040283529160200191610a55565b820191906000526020600020905b815481529060010190602001808311610a3857829003601f168201915b50505050508152602001600682018054600181600116156101000203166002900480601f016020809104026020016040519081016040528092919081815260200182805460018160011615610100020316600290048015610af75780601f10610acc57610100808354040283529160200191610af7565b820191906000526020600020905b815481529060010190602001808311610ada57829003601f168201915b50505050508152602001600782018054600181600116156101000203166002900480601f016020809104026020016040519081016040528092919081815260200182805460018160011615610100020316600290048015610b995780601f10610b6e57610100808354040283529160200191610b99565b820191906000526020600020905b815481529060010190602001808311610b7c57829003601f168201915b50505050508152602001600882018054600181600116156101000203166002900480601f016020809104026020016040519081016040528092919081815260200182805460018160011615610100020316600290048015610c3b5780601f10610c1057610100808354040283529160200191610c3b565b820191906000526020600020905b815481529060010190602001808311610c1e57829003601f168201915b50505050508152602001600982018054600181600116156101000203166002900480601f016020809104026020016040519081016040528092919081815260200182805460018160011615610100020316600290048015610cdd5780601f10610cb257610100808354040283529160200191610cdd565b820191906000526020600020905b815481529060010190602001808311610cc057829003601f168201915b5050505050815250509050919050565b828054600181600116156101000203166002900490600052602060002090601f016020900481019282601f10610d2e57805160ff1916838001178555610d5c565b82800160010185558215610d5c579182015b82811115610d5b578251825591602001919060010190610d40565b5b509050610d699190610dc0565b5090565b604051806101400160405280606081526020016000815260200160008152602001606081526020016060815260200160608152602001606081526020016060815260200160608152602001606081525090565b610de291905b80821115610dde576000816000905550600101610dc6565b5090565b90565b600081359050610df4816113cd565b92915050565b600082601f830112610e0b57600080fd5b8135610e1e610e19826112e5565b6112b8565b91508082526020830160208301858383011115610e3a57600080fd5b610e4583828461137a565b50505092915050565b600081359050610e5d816113e4565b92915050565b600060208284031215610e7557600080fd5b6000610e8384828501610de5565b91505092915050565b6000806000806000806000806000806101408b8d031215610eac57600080fd5b60008b013567ffffffffffffffff811115610ec657600080fd5b610ed28d828e01610dfa565b9a50506020610ee38d828e01610e4e565b9950506040610ef48d828e01610e4e565b98505060608b013567ffffffffffffffff811115610f1157600080fd5b610f1d8d828e01610dfa565b97505060808b013567ffffffffffffffff811115610f3a57600080fd5b610f468d828e01610dfa565b96505060a08b013567ffffffffffffffff811115610f6357600080fd5b610f6f8d828e01610dfa565b95505060c08b013567ffffffffffffffff811115610f8c57600080fd5b610f988d828e01610dfa565b94505060e08b013567ffffffffffffffff811115610fb557600080fd5b610fc18d828e01610dfa565b9350506101008b013567ffffffffffffffff811115610fdf57600080fd5b610feb8d828e01610dfa565b9250506101208b013567ffffffffffffffff81111561100957600080fd5b6110158d828e01610dfa565b9150509295989b9194979a5092959850565b600061103282611311565b61103c818561131c565b935061104c818560208601611389565b611055816113bc565b840191505092915050565b600061106b82611311565b611075818561132d565b9350611085818560208601611389565b61108e816113bc565b840191505092915050565b60006101408301600083015184820360008601526110b78282611027565b91505060208301516110cc60208601826111a4565b5060408301516110df60408601826111a4565b50606083015184820360608601526110f78282611027565b915050608083015184820360808601526111118282611027565b91505060a083015184820360a086015261112b8282611027565b91505060c083015184820360c08601526111458282611027565b91505060e083015184820360e086015261115f8282611027565b91505061010083015184820361010086015261117b8282611027565b9150506101208301518482036101208601526111978282611027565b9150508091505092915050565b6111ad81611370565b82525050565b6111bc81611370565b82525050565b60006101408201905081810360008301526111dd818d611060565b90506111ec602083018c6111b3565b6111f9604083018b6111b3565b818103606083015261120b818a611060565b9050818103608083015261121f8189611060565b905081810360a08301526112338188611060565b905081810360c08301526112478187611060565b905081810360e083015261125b8186611060565b90508181036101008301526112708185611060565b90508181036101208301526112858184611060565b90509b9a5050505050505050505050565b600060208201905081810360008301526112b08184611099565b905092915050565b6000604051905081810181811067ffffffffffffffff821117156112db57600080fd5b8060405250919050565b600067ffffffffffffffff8211156112fc57600080fd5b601f19601f8301169050602081019050919050565b600081519050919050565b600082825260208201905092915050565b600082825260208201905092915050565b600061134982611350565b9050919050565b600073ffffffffffffffffffffffffffffffffffffffff82169050919050565b6000819050919050565b82818337600083830152505050565b60005b838110156113a757808201518184015260208101905061138c565b838111156113b6576000848401525b50505050565b6000601f19601f8301169050919050565b6113d68161133e565b81146113e157600080fd5b50565b6113ed81611370565b81146113f857600080fd5b5056fea365627a7a72315820b2251a92b45fb4a8870a687ff98b895774d39e375ad4c443a79b1c77ea2618756c6578706572696d656e74616cf564736f6c63430005100040",
  "source": "pragma solidity >=0.4.21 <0.6.0;\n// pragma solidity >=0.7.0 <0.9.0;\npragma experimental ABIEncoderV2;\n\n\n\n\ncontract document1{\n\n    struct PatientDetails{\n    string Name;\n    uint Age;\n    uint AadhaarNumber;\n    string Email;\n    string PhoneNumber;\n    string Address;\n    string BloodGroup;\n    string HealthConditions;\n    string HospitalsAttended;\n    string AdditionalDetails;\n    }\n\n    // PatientDetails[] public GroupOfPatients;\n    // mapping (address => string[]) public documents;\n    // mapping (address => string[]) public username;\n\n    // mapping(address => mapping(string => string)) details;\n\n    mapping (address => PatientDetails) public GroupOfPatients;\n\n\n    function setDetails(string memory _Name, uint _Age, uint _AadhaarNumber , string memory _Email , \n                        string memory _PhoneNumber , string memory _Address , string memory _BloodGroup, \n                        string memory _HealthCondtions, string memory _HospitalsAttended, string memory _AdditionalDetails) public {\n        GroupOfPatients[msg.sender] = PatientDetails({\n            Name: _Name,\n            Age: _Age,\n            AadhaarNumber: _AadhaarNumber,\n            Email: _Email,\n            PhoneNumber: _PhoneNumber,\n            Address: _Address,\n            BloodGroup: _BloodGroup,\n            HealthConditions: _HealthCondtions,\n            HospitalsAttended: _HospitalsAttended,\n            AdditionalDetails: _AdditionalDetails\n        });\n    }\n\n    //write function\n    // function addDocument(string memory _fileHash) public {\n    //     address from = msg.sender;\n    //     documents[from].push(_fileHash);\n    // }\n\n    // function addUserDetails(string memory _username) public {\n    //     address from = msg.sender;\n    //     username[from].push(_username);\n    // }\n\n\n    //read function\n    // function getDocuments(address user) public view returns(string[] memory){\n    //     return documents[user];\n    // }\n\n    function getUserDetails(address user) public view returns(PatientDetails memory){\n        return GroupOfPatients[user];\n    }\n}",
  "sourcePath": "/home/abhirampuranik/HealthcareSystem_Blockchain/src/contracts/document1.sol",
  "compiler": {
    "name": "solc",
    "version": "0.5.16+commit.9c3226ce.Emscripten.clang"
  },
  "schemaVersion": "3.4.3",
  "updatedAt": "2021-11-09T13:29:48.327Z",
  "networkType": "ethereum",
  "devdoc": {
    "methods": {}
  },
  "userdoc": {
    "methods": {}
  }
}