{
  "contractName": "document2",
  "abi": [
    {
      "constant": true,
      "inputs": [
        {
          "internalType": "address",
          "name": "",
          "type": "address"
        },
        {
          "internalType": "uint256",
          "name": "",
          "type": "uint256"
        }
      ],
      "name": "documents",
      "outputs": [
        {
          "internalType": "string",
          "name": "",
          "type": "string"
        }
      ],
      "payable": false,
      "stateMutability": "view",
      "type": "function"
    },
    {
      "constant": false,
      "inputs": [
        {
          "internalType": "string",
          "name": "_fileHash",
          "type": "string"
        }
      ],
      "name": "addDocument",
      "outputs": [],
      "payable": false,
      "stateMutability": "nonpayable",
      "type": "function"
    },
    {
      "constant": true,
      "inputs": [
        {
          "internalType": "address",
          "name": "user",
          "type": "address"
        }
      ],
      "name": "getDocuments",
      "outputs": [
        {
          "internalType": "string[]",
          "name": "",
          "type": "string[]"
        }
      ],
      "payable": false,
      "stateMutability": "view",
      "type": "function"
    }
  ],
  "bytecode": "0x608060405234801561001057600080fd5b506107fa806100206000396000f3fe608060405234801561001057600080fd5b50600436106100415760003560e01c806327f50a2d146100465780636339884414610076578063f740e045146100a6575b600080fd5b610060600480360361005b9190810190610456565b6100c2565b60405161006d91906105f7565b60405180910390f35b610090600480360361008b919081019061047f565b6101e9565b60405161009d9190610619565b60405180910390f35b6100c060048036036100bb91908101906104bb565b6102af565b005b60606000808373ffffffffffffffffffffffffffffffffffffffff1673ffffffffffffffffffffffffffffffffffffffff168152602001908152602001600020805480602002602001604051908101604052809291908181526020016000905b828210156101de578382906000526020600020018054600181600116156101000203166002900480601f0160208091040260200160405190810160405280929190818152602001828054600181600116156101000203166002900480156101ca5780601f1061019f576101008083540402835291602001916101ca565b820191906000526020600020905b8154815290600101906020018083116101ad57829003601f168201915b505050505081526020019060010190610122565b505050509050919050565b6000602052816000526040600020818154811061020257fe5b90600052602060002001600091509150508054600181600116156101000203166002900480601f0160208091040260200160405190810160405280929190818152602001828054600181600116156101000203166002900480156102a75780601f1061027c576101008083540402835291602001916102a7565b820191906000526020600020905b81548152906001019060200180831161028a57829003601f168201915b505050505081565b60003390506000808273ffffffffffffffffffffffffffffffffffffffff1673ffffffffffffffffffffffffffffffffffffffff16815260200190815260200160002082908060018154018082558091505090600182039060005260206000200160009091929091909150908051906020019061032d929190610333565b50505050565b828054600181600116156101000203166002900490600052602060002090601f016020900481019282601f1061037457805160ff19168380011785556103a2565b828001600101855582156103a2579182015b828111156103a1578251825591602001919060010190610386565b5b5090506103af91906103b3565b5090565b6103d591905b808211156103d15760008160009055506001016103b9565b5090565b90565b6000813590506103e781610789565b92915050565b600082601f8301126103fe57600080fd5b813561041161040c82610668565b61063b565b9150808252602083016020830185838301111561042d57600080fd5b610438838284610736565b50505092915050565b600081359050610450816107a0565b92915050565b60006020828403121561046857600080fd5b6000610476848285016103d8565b91505092915050565b6000806040838503121561049257600080fd5b60006104a0858286016103d8565b92505060206104b185828601610441565b9150509250929050565b6000602082840312156104cd57600080fd5b600082013567ffffffffffffffff8111156104e757600080fd5b6104f3848285016103ed565b91505092915050565b60006105088383610585565b905092915050565b600061051b826106a4565b61052581856106c7565b93508360208202850161053785610694565b8060005b85811015610573578484038952815161055485826104fc565b945061055f836106ba565b925060208a0199505060018101905061053b565b50829750879550505050505092915050565b6000610590826106af565b61059a81856106d8565b93506105aa818560208601610745565b6105b381610778565b840191505092915050565b60006105c9826106af565b6105d381856106e9565b93506105e3818560208601610745565b6105ec81610778565b840191505092915050565b600060208201905081810360008301526106118184610510565b905092915050565b6000602082019050818103600083015261063381846105be565b905092915050565b6000604051905081810181811067ffffffffffffffff8211171561065e57600080fd5b8060405250919050565b600067ffffffffffffffff82111561067f57600080fd5b601f19601f8301169050602081019050919050565b6000819050602082019050919050565b600081519050919050565b600081519050919050565b6000602082019050919050565b600082825260208201905092915050565b600082825260208201905092915050565b600082825260208201905092915050565b60006107058261070c565b9050919050565b600073ffffffffffffffffffffffffffffffffffffffff82169050919050565b6000819050919050565b82818337600083830152505050565b60005b83811015610763578082015181840152602081019050610748565b83811115610772576000848401525b50505050565b6000601f19601f8301169050919050565b610792816106fa565b811461079d57600080fd5b50565b6107a98161072c565b81146107b457600080fd5b5056fea365627a7a72315820381d2b2ad1bf9512c143269d199a757ea2834f9d320b35391adb9d24866a37b06c6578706572696d656e74616cf564736f6c63430005100040",
  "source": "pragma solidity >=0.4.21 <0.6.0;\npragma experimental ABIEncoderV2;\n\ncontract document2{\n    mapping (address => string[]) public documents;\n    //write function\n    function addDocument(string memory _fileHash) public {\n        address from = msg.sender;\n        documents[from].push(_fileHash);\n    }\n    //read function\n    function getDocuments(address user) public view returns(string[] memory){\n        return documents[user];\n    }\n}",
  "sourcePath": "/home/akanksha/medi_records/src/contracts/document2.sol",
  "compiler": {
    "name": "solc",
    "version": "0.5.16+commit.9c3226ce.Emscripten.clang"
  },
  "schemaVersion": "3.4.3",
  "updatedAt": "2021-11-08T19:03:18.645Z",
  "networkType": "ethereum",
  "devdoc": {
    "methods": {}
  },
  "userdoc": {
    "methods": {}
  }
}