{
  "contractName": "patient",
  "abi": [
    {
      "constant": true,
      "inputs": [
        {
          "internalType": "address",
          "name": "",
          "type": "address"
        }
      ],
      "name": "GroupOfPatients",
      "outputs": [
        {
          "internalType": "string",
          "name": "Name",
          "type": "string"
        },
        {
          "internalType": "string",
          "name": "Age",
          "type": "string"
        },
        {
          "internalType": "string",
          "name": "AadhaarNumber",
          "type": "string"
        },
        {
          "internalType": "string",
          "name": "Email",
          "type": "string"
        },
        {
          "internalType": "string",
          "name": "PhoneNumber",
          "type": "string"
        },
        {
          "internalType": "string",
          "name": "Address",
          "type": "string"
        },
        {
          "internalType": "string",
          "name": "BloodGroup",
          "type": "string"
        },
        {
          "internalType": "string",
          "name": "HealthConditions",
          "type": "string"
        },
        {
          "internalType": "string",
          "name": "HospitalsAttended",
          "type": "string"
        },
        {
          "internalType": "bool",
          "name": "isValue",
          "type": "bool"
        }
      ],
      "payable": false,
      "stateMutability": "view",
      "type": "function"
    },
    {
      "constant": false,
      "inputs": [
        {
          "internalType": "string",
          "name": "_Name",
          "type": "string"
        },
        {
          "internalType": "string",
          "name": "_Age",
          "type": "string"
        },
        {
          "internalType": "string",
          "name": "_AadhaarNumber",
          "type": "string"
        },
        {
          "internalType": "string",
          "name": "_Email",
          "type": "string"
        },
        {
          "internalType": "string",
          "name": "_PhoneNumber",
          "type": "string"
        },
        {
          "internalType": "string",
          "name": "_Address",
          "type": "string"
        },
        {
          "internalType": "string",
          "name": "_BloodGroup",
          "type": "string"
        },
        {
          "internalType": "string",
          "name": "_HealthConditions",
          "type": "string"
        },
        {
          "internalType": "string",
          "name": "_HospitalsAttended",
          "type": "string"
        }
      ],
      "name": "setDetails",
      "outputs": [],
      "payable": false,
      "stateMutability": "nonpayable",
      "type": "function"
    },
    {
      "constant": false,
      "inputs": [
        {
          "internalType": "string",
          "name": "_fileHash",
          "type": "string"
        }
      ],
      "name": "addDocument",
      "outputs": [],
      "payable": false,
      "stateMutability": "nonpayable",
      "type": "function"
    },
    {
      "constant": true,
      "inputs": [
        {
          "internalType": "address",
          "name": "user",
          "type": "address"
        }
      ],
      "name": "getDocuments",
      "outputs": [
        {
          "internalType": "string[]",
          "name": "",
          "type": "string[]"
        }
      ],
      "payable": false,
      "stateMutability": "view",
      "type": "function"
    },
    {
      "constant": true,
      "inputs": [
        {
          "internalType": "address",
          "name": "user",
          "type": "address"
        }
      ],
      "name": "getPatientDetails",
      "outputs": [
        {
          "components": [
            {
              "internalType": "string",
              "name": "Name",
              "type": "string"
            },
            {
              "internalType": "string",
              "name": "Age",
              "type": "string"
            },
            {
              "internalType": "string",
              "name": "AadhaarNumber",
              "type": "string"
            },
            {
              "internalType": "string",
              "name": "Email",
              "type": "string"
            },
            {
              "internalType": "string",
              "name": "PhoneNumber",
              "type": "string"
            },
            {
              "internalType": "string",
              "name": "Address",
              "type": "string"
            },
            {
              "internalType": "string",
              "name": "BloodGroup",
              "type": "string"
            },
            {
              "internalType": "string",
              "name": "HealthConditions",
              "type": "string"
            },
            {
              "internalType": "string",
              "name": "HospitalsAttended",
              "type": "string"
            },
            {
              "internalType": "string[]",
              "name": "FileHashes",
              "type": "string[]"
            },
            {
              "internalType": "bool",
              "name": "isValue",
              "type": "bool"
            }
          ],
          "internalType": "struct patient.PatientDetails",
          "name": "",
          "type": "tuple"
        }
      ],
      "payable": false,
      "stateMutability": "view",
      "type": "function"
    },
    {
      "constant": true,
      "inputs": [
        {
          "internalType": "address",
          "name": "user",
          "type": "address"
        }
      ],
      "name": "Exists",
      "outputs": [
        {
          "internalType": "bool",
          "name": "exists",
          "type": "bool"
        }
      ],
      "payable": false,
      "stateMutability": "view",
      "type": "function"
    }
  ],
  "bytecode": "0x608060405234801561001057600080fd5b50611dab806100206000396000f3fe608060405234801561001057600080fd5b50600436106100625760003560e01c806327f50a2d146100675780632ff4438214610097578063cbb89235146100d0578063cda981d5146100ec578063efe2ccc11461011c578063f740e0451461014c575b600080fd5b610081600480360361007c91908101906115ca565b610168565b60405161008e9190611a8e565b60405180910390f35b6100b160048036036100ac91908101906115ca565b610292565b6040516100c79a99989796959493929190611acb565b60405180910390f35b6100ea60048036036100e59190810190611634565b61084b565b005b610106600480360361010191908101906115ca565b610b0c565b6040516101139190611ab0565b60405180910390f35b610136600480360361013191908101906115ca565b610b7c565b6040516101439190611ba6565b60405180910390f35b610166600480360361016191908101906115f3565b61128b565b005b60606000808373ffffffffffffffffffffffffffffffffffffffff1673ffffffffffffffffffffffffffffffffffffffff168152602001908152602001600020600901805480602002602001604051908101604052809291908181526020016000905b82821015610287578382906000526020600020018054600181600116156101000203166002900480601f0160208091040260200160405190810160405280929190818152602001828054600181600116156101000203166002900480156102735780601f1061024857610100808354040283529160200191610273565b820191906000526020600020905b81548152906001019060200180831161025657829003601f168201915b5050505050815260200190600101906101cb565b505050509050919050565b6000602052806000526040600020600091509050806000018054600181600116156101000203166002900480601f01602080910402602001604051908101604052809291908181526020018280546001816001161561010002031660029004801561033e5780601f106103135761010080835404028352916020019161033e565b820191906000526020600020905b81548152906001019060200180831161032157829003601f168201915b505050505090806001018054600181600116156101000203166002900480601f0160208091040260200160405190810160405280929190818152602001828054600181600116156101000203166002900480156103dc5780601f106103b1576101008083540402835291602001916103dc565b820191906000526020600020905b8154815290600101906020018083116103bf57829003601f168201915b505050505090806002018054600181600116156101000203166002900480601f01602080910402602001604051908101604052809291908181526020018280546001816001161561010002031660029004801561047a5780601f1061044f5761010080835404028352916020019161047a565b820191906000526020600020905b81548152906001019060200180831161045d57829003601f168201915b505050505090806003018054600181600116156101000203166002900480601f0160208091040260200160405190810160405280929190818152602001828054600181600116156101000203166002900480156105185780601f106104ed57610100808354040283529160200191610518565b820191906000526020600020905b8154815290600101906020018083116104fb57829003601f168201915b505050505090806004018054600181600116156101000203166002900480601f0160208091040260200160405190810160405280929190818152602001828054600181600116156101000203166002900480156105b65780601f1061058b576101008083540402835291602001916105b6565b820191906000526020600020905b81548152906001019060200180831161059957829003601f168201915b505050505090806005018054600181600116156101000203166002900480601f0160208091040260200160405190810160405280929190818152602001828054600181600116156101000203166002900480156106545780601f1061062957610100808354040283529160200191610654565b820191906000526020600020905b81548152906001019060200180831161063757829003601f168201915b505050505090806006018054600181600116156101000203166002900480601f0160208091040260200160405190810160405280929190818152602001828054600181600116156101000203166002900480156106f25780601f106106c7576101008083540402835291602001916106f2565b820191906000526020600020905b8154815290600101906020018083116106d557829003601f168201915b505050505090806007018054600181600116156101000203166002900480601f0160208091040260200160405190810160405280929190818152602001828054600181600116156101000203166002900480156107905780601f1061076557610100808354040283529160200191610790565b820191906000526020600020905b81548152906001019060200180831161077357829003601f168201915b505050505090806008018054600181600116156101000203166002900480601f01602080910402602001604051908101604052809291908181526020018280546001816001161561010002031660029004801561082e5780601f106108035761010080835404028352916020019161082e565b820191906000526020600020905b81548152906001019060200180831161081157829003601f168201915b50505050509080600a0160009054906101000a900460ff1690508a565b6040518061016001604052808a81526020018981526020018881526020018781526020018681526020018581526020018481526020018381526020018281526020016001805480602002602001604051908101604052809291908181526020016000905b8282101561096b578382906000526020600020018054600181600116156101000203166002900480601f0160208091040260200160405190810160405280929190818152602001828054600181600116156101000203166002900480156109575780601f1061092c57610100808354040283529160200191610957565b820191906000526020600020905b81548152906001019060200180831161093a57829003601f168201915b5050505050815260200190600101906108af565b505050508152602001600115158152506000803373ffffffffffffffffffffffffffffffffffffffff1673ffffffffffffffffffffffffffffffffffffffff16815260200190815260200160002060008201518160000190805190602001906109d592919061130c565b5060208201518160010190805190602001906109f292919061130c565b506040820151816002019080519060200190610a0f92919061130c565b506060820151816003019080519060200190610a2c92919061130c565b506080820151816004019080519060200190610a4992919061130c565b5060a0820151816005019080519060200190610a6692919061130c565b5060c0820151816006019080519060200190610a8392919061130c565b5060e0820151816007019080519060200190610aa092919061130c565b50610100820151816008019080519060200190610abe92919061130c565b50610120820151816009019080519060200190610adc92919061138c565b5061014082015181600a0160006101000a81548160ff021916908315150217905550905050505050505050505050565b6000600115156000808473ffffffffffffffffffffffffffffffffffffffff1673ffffffffffffffffffffffffffffffffffffffff168152602001908152602001600020600a0160009054906101000a900460ff1615151415610b725760019050610b77565b600090505b919050565b610b846113ec565b6000808373ffffffffffffffffffffffffffffffffffffffff1673ffffffffffffffffffffffffffffffffffffffff16815260200190815260200160002060405180610160016040529081600082018054600181600116156101000203166002900480601f016020809104026020016040519081016040528092919081815260200182805460018160011615610100020316600290048015610c675780601f10610c3c57610100808354040283529160200191610c67565b820191906000526020600020905b815481529060010190602001808311610c4a57829003601f168201915b50505050508152602001600182018054600181600116156101000203166002900480601f016020809104026020016040519081016040528092919081815260200182805460018160011615610100020316600290048015610d095780601f10610cde57610100808354040283529160200191610d09565b820191906000526020600020905b815481529060010190602001808311610cec57829003601f168201915b50505050508152602001600282018054600181600116156101000203166002900480601f016020809104026020016040519081016040528092919081815260200182805460018160011615610100020316600290048015610dab5780601f10610d8057610100808354040283529160200191610dab565b820191906000526020600020905b815481529060010190602001808311610d8e57829003601f168201915b50505050508152602001600382018054600181600116156101000203166002900480601f016020809104026020016040519081016040528092919081815260200182805460018160011615610100020316600290048015610e4d5780601f10610e2257610100808354040283529160200191610e4d565b820191906000526020600020905b815481529060010190602001808311610e3057829003601f168201915b50505050508152602001600482018054600181600116156101000203166002900480601f016020809104026020016040519081016040528092919081815260200182805460018160011615610100020316600290048015610eef5780601f10610ec457610100808354040283529160200191610eef565b820191906000526020600020905b815481529060010190602001808311610ed257829003601f168201915b50505050508152602001600582018054600181600116156101000203166002900480601f016020809104026020016040519081016040528092919081815260200182805460018160011615610100020316600290048015610f915780601f10610f6657610100808354040283529160200191610f91565b820191906000526020600020905b815481529060010190602001808311610f7457829003601f168201915b50505050508152602001600682018054600181600116156101000203166002900480601f0160208091040260200160405190810160405280929190818152602001828054600181600116156101000203166002900480156110335780601f1061100857610100808354040283529160200191611033565b820191906000526020600020905b81548152906001019060200180831161101657829003601f168201915b50505050508152602001600782018054600181600116156101000203166002900480601f0160208091040260200160405190810160405280929190818152602001828054600181600116156101000203166002900480156110d55780601f106110aa576101008083540402835291602001916110d5565b820191906000526020600020905b8154815290600101906020018083116110b857829003601f168201915b50505050508152602001600882018054600181600116156101000203166002900480601f0160208091040260200160405190810160405280929190818152602001828054600181600116156101000203166002900480156111775780601f1061114c57610100808354040283529160200191611177565b820191906000526020600020905b81548152906001019060200180831161115a57829003601f168201915b5050505050815260200160098201805480602002602001604051908101604052809291908181526020016000905b82821015611261578382906000526020600020018054600181600116156101000203166002900480601f01602080910402602001604051908101604052809291908181526020018280546001816001161561010002031660029004801561124d5780601f106112225761010080835404028352916020019161124d565b820191906000526020600020905b81548152906001019060200180831161123057829003601f168201915b5050505050815260200190600101906111a5565b505050508152602001600a820160009054906101000a900460ff1615151515815250509050919050565b6000803373ffffffffffffffffffffffffffffffffffffffff1673ffffffffffffffffffffffffffffffffffffffff168152602001908152602001600020600901819080600181540180825580915050906001820390600052602060002001600090919290919091509080519060200190611307929190611448565b505050565b828054600181600116156101000203166002900490600052602060002090601f016020900481019282601f1061134d57805160ff191683800117855561137b565b8280016001018555821561137b579182015b8281111561137a57825182559160200191906001019061135f565b5b50905061138891906114c8565b5090565b8280548282559060005260206000209081019282156113db579160200282015b828111156113da5782518290805190602001906113ca92919061130c565b50916020019190600101906113ac565b5b5090506113e891906114ed565b5090565b604051806101600160405280606081526020016060815260200160608152602001606081526020016060815260200160608152602001606081526020016060815260200160608152602001606081526020016000151581525090565b828054600181600116156101000203166002900490600052602060002090601f016020900481019282601f1061148957805160ff19168380011785556114b7565b828001600101855582156114b7579182015b828111156114b657825182559160200191906001019061149b565b5b5090506114c491906114c8565b5090565b6114ea91905b808211156114e65760008160009055506001016114ce565b5090565b90565b61151691905b8082111561151257600081816115099190611519565b506001016114f3565b5090565b90565b50805460018160011615610100020316600290046000825580601f1061153f575061155e565b601f01602090049060005260206000209081019061155d91906114c8565b5b50565b60008135905061157081611d51565b92915050565b600082601f83011261158757600080fd5b813561159a61159582611bf5565b611bc8565b915080825260208301602083018583830111156115b657600080fd5b6115c1838284611cfe565b50505092915050565b6000602082840312156115dc57600080fd5b60006115ea84828501611561565b91505092915050565b60006020828403121561160557600080fd5b600082013567ffffffffffffffff81111561161f57600080fd5b61162b84828501611576565b91505092915050565b60008060008060008060008060006101208a8c03121561165357600080fd5b60008a013567ffffffffffffffff81111561166d57600080fd5b6116798c828d01611576565b99505060208a013567ffffffffffffffff81111561169657600080fd5b6116a28c828d01611576565b98505060408a013567ffffffffffffffff8111156116bf57600080fd5b6116cb8c828d01611576565b97505060608a013567ffffffffffffffff8111156116e857600080fd5b6116f48c828d01611576565b96505060808a013567ffffffffffffffff81111561171157600080fd5b61171d8c828d01611576565b95505060a08a013567ffffffffffffffff81111561173a57600080fd5b6117468c828d01611576565b94505060c08a013567ffffffffffffffff81111561176357600080fd5b61176f8c828d01611576565b93505060e08a013567ffffffffffffffff81111561178c57600080fd5b6117988c828d01611576565b9250506101008a013567ffffffffffffffff8111156117b657600080fd5b6117c28c828d01611576565b9150509295985092959850929598565b60006117de83836118ee565b905092915050565b60006117f182611c4c565b6117fb8185611c8d565b93508360208202850161180d85611c31565b8060005b85811015611849578484038952815161182a85826117d2565b945061183583611c6f565b925060208a01995050600181019050611811565b50829750879550505050505092915050565b600061186682611c41565b6118708185611c7c565b93508360208202850161188285611c21565b8060005b858110156118be578484038952815161189f85826117d2565b94506118aa83611c62565b925060208a01995050600181019050611886565b50829750879550505050505092915050565b6118d981611cd2565b82525050565b6118e881611cd2565b82525050565b60006118f982611c57565b6119038185611c9e565b9350611913818560208601611d0d565b61191c81611d40565b840191505092915050565b600061193282611c57565b61193c8185611caf565b935061194c818560208601611d0d565b61195581611d40565b840191505092915050565b600061016083016000830151848203600086015261197e82826118ee565b9150506020830151848203602086015261199882826118ee565b915050604083015184820360408601526119b282826118ee565b915050606083015184820360608601526119cc82826118ee565b915050608083015184820360808601526119e682826118ee565b91505060a083015184820360a0860152611a0082826118ee565b91505060c083015184820360c0860152611a1a82826118ee565b91505060e083015184820360e0860152611a3482826118ee565b915050610100830151848203610100860152611a5082826118ee565b915050610120830151848203610120860152611a6c828261185b565b915050610140830151611a836101408601826118d0565b508091505092915050565b60006020820190508181036000830152611aa881846117e6565b905092915050565b6000602082019050611ac560008301846118df565b92915050565b6000610140820190508181036000830152611ae6818d611927565b90508181036020830152611afa818c611927565b90508181036040830152611b0e818b611927565b90508181036060830152611b22818a611927565b90508181036080830152611b368189611927565b905081810360a0830152611b4a8188611927565b905081810360c0830152611b5e8187611927565b905081810360e0830152611b728186611927565b9050818103610100830152611b878185611927565b9050611b976101208301846118df565b9b9a5050505050505050505050565b60006020820190508181036000830152611bc08184611960565b905092915050565b6000604051905081810181811067ffffffffffffffff82111715611beb57600080fd5b8060405250919050565b600067ffffffffffffffff821115611c0c57600080fd5b601f19601f8301169050602081019050919050565b6000819050602082019050919050565b6000819050602082019050919050565b600081519050919050565b600081519050919050565b600081519050919050565b6000602082019050919050565b6000602082019050919050565b600082825260208201905092915050565b600082825260208201905092915050565b600082825260208201905092915050565b600082825260208201905092915050565b6000611ccb82611cde565b9050919050565b60008115159050919050565b600073ffffffffffffffffffffffffffffffffffffffff82169050919050565b82818337600083830152505050565b60005b83811015611d2b578082015181840152602081019050611d10565b83811115611d3a576000848401525b50505050565b6000601f19601f8301169050919050565b611d5a81611cc0565b8114611d6557600080fd5b5056fea365627a7a72315820e2e9da0fc18df1fcf5d54117205e1508a90d1635dc08b0c856dc1f109222be6d6c6578706572696d656e74616cf564736f6c63430005100040",
  "source": "pragma solidity >=0.4.21 <0.6.0;\n// pragma solidity >=0.7.0 <0.9.0;\npragma experimental ABIEncoderV2;\nimport './doctor.sol';\n\ncontract patient{\n\n    struct PatientDetails{\n    \n    string Name;\n    string Age;\n    string AadhaarNumber;\n    string Email;\n    string PhoneNumber;\n    string Address;\n    string BloodGroup;\n    string HealthConditions;\n    string HospitalsAttended;\n    string[] FileHashes;\n    bool isValue;\n    }\n\n    mapping (address => PatientDetails) public GroupOfPatients;\n\n    string[] emptyStringArray;\n    \n\n    function setDetails(string memory _Name, string memory _Age, string memory _AadhaarNumber , string memory _Email , \n                        string memory _PhoneNumber , string memory _Address , string memory _BloodGroup, \n                        string memory _HealthConditions, string memory _HospitalsAttended) public {\n        GroupOfPatients[msg.sender] = PatientDetails({\n            Name: _Name,\n            Age: _Age,\n            AadhaarNumber: _AadhaarNumber,\n            Email: _Email,\n            PhoneNumber: _PhoneNumber,\n            Address: _Address,\n            BloodGroup: _BloodGroup,\n            HealthConditions: _HealthConditions,\n            HospitalsAttended: _HospitalsAttended,\n            FileHashes: emptyStringArray,\n            isValue: true\n            \n        });\n    }\n\n    \n    \n\n    //write function\n    function addDocument(string memory _fileHash) public {\n        GroupOfPatients[msg.sender].FileHashes.push(_fileHash);\n    }\n\n\n    //read function\n    function getDocuments(address user) public view returns(string[] memory){\n        return GroupOfPatients[user].FileHashes;\n    }\n\n    function getPatientDetails(address user) public view returns(PatientDetails memory){\n        return GroupOfPatients[user];\n    }\n\n    function Exists(address user) public view returns(bool exists) {\n        if(GroupOfPatients[user].isValue == true) return true;\n        return false;\n    }\n\n\n    \n    \n    // contract CalledContract {\n    //         function doSomething() public {\n    //     }\n    // }\n\n    // contract CallerContract {\n    //     function callAnotherContract(address addr) external {\n    //         CalledContract called = CalledContract(addr);\n    //         called.doSomething();\n    //     }\n    // }\n\n    // function callAnotherContract(address addr) external {\n    //     doctor called = doctor(addr);\n    //     called.doSomething();\n    // }\n\n    // function test(address addr) public view returns(string memory){\n    //     doctor called = doctor(addr);\n    //     return called.getDoctorsList();\n    // }\n\n\n\n}",
  "sourcePath": "/home/abhirampuranik/HealthcareSystem_Blockchain/src/contracts/patient.sol",
  "compiler": {
    "name": "solc",
    "version": "0.5.16+commit.9c3226ce.Emscripten.clang"
  },
  "schemaVersion": "3.4.3",
  "updatedAt": "2021-12-07T16:09:09.860Z",
  "networkType": "ethereum",
  "devdoc": {
    "methods": {}
  },
  "userdoc": {
    "methods": {}
  }
}