{
  "contractName": "patient",
  "abi": [
    {
      "constant": true,
      "inputs": [
        {
          "internalType": "address",
          "name": "",
          "type": "address"
        }
      ],
      "name": "GroupOfPatients",
      "outputs": [
        {
          "internalType": "string",
          "name": "Name",
          "type": "string"
        },
        {
          "internalType": "string",
          "name": "Age",
          "type": "string"
        },
        {
          "internalType": "string",
          "name": "AadhaarNumber",
          "type": "string"
        },
        {
          "internalType": "string",
          "name": "Email",
          "type": "string"
        },
        {
          "internalType": "string",
          "name": "PhoneNumber",
          "type": "string"
        },
        {
          "internalType": "string",
          "name": "Address",
          "type": "string"
        },
        {
          "internalType": "string",
          "name": "BloodGroup",
          "type": "string"
        },
        {
          "internalType": "string",
          "name": "HealthConditions",
          "type": "string"
        },
        {
          "internalType": "string",
          "name": "HospitalsAttended",
          "type": "string"
        }
      ],
      "payable": false,
      "stateMutability": "view",
      "type": "function"
    },
    {
      "constant": false,
      "inputs": [
        {
          "internalType": "string",
          "name": "_Name",
          "type": "string"
        },
        {
          "internalType": "string",
          "name": "_Age",
          "type": "string"
        },
        {
          "internalType": "string",
          "name": "_AadhaarNumber",
          "type": "string"
        },
        {
          "internalType": "string",
          "name": "_Email",
          "type": "string"
        },
        {
          "internalType": "string",
          "name": "_PhoneNumber",
          "type": "string"
        },
        {
          "internalType": "string",
          "name": "_Address",
          "type": "string"
        },
        {
          "internalType": "string",
          "name": "_BloodGroup",
          "type": "string"
        },
        {
          "internalType": "string",
          "name": "_HealthConditions",
          "type": "string"
        },
        {
          "internalType": "string",
          "name": "_HospitalsAttended",
          "type": "string"
        }
      ],
      "name": "setDetails",
      "outputs": [],
      "payable": false,
      "stateMutability": "nonpayable",
      "type": "function"
    },
    {
      "constant": false,
      "inputs": [
        {
          "internalType": "string",
          "name": "_fileHash",
          "type": "string"
        }
      ],
      "name": "addDocument",
      "outputs": [],
      "payable": false,
      "stateMutability": "nonpayable",
      "type": "function"
    },
    {
      "constant": true,
      "inputs": [
        {
          "internalType": "address",
          "name": "user",
          "type": "address"
        }
      ],
      "name": "getDocuments",
      "outputs": [
        {
          "internalType": "string[]",
          "name": "",
          "type": "string[]"
        }
      ],
      "payable": false,
      "stateMutability": "view",
      "type": "function"
    },
    {
      "constant": true,
      "inputs": [
        {
          "internalType": "address",
          "name": "user",
          "type": "address"
        }
      ],
      "name": "getUserDetails",
      "outputs": [
        {
          "components": [
            {
              "internalType": "string",
              "name": "Name",
              "type": "string"
            },
            {
              "internalType": "string",
              "name": "Age",
              "type": "string"
            },
            {
              "internalType": "string",
              "name": "AadhaarNumber",
              "type": "string"
            },
            {
              "internalType": "string",
              "name": "Email",
              "type": "string"
            },
            {
              "internalType": "string",
              "name": "PhoneNumber",
              "type": "string"
            },
            {
              "internalType": "string",
              "name": "Address",
              "type": "string"
            },
            {
              "internalType": "string",
              "name": "BloodGroup",
              "type": "string"
            },
            {
              "internalType": "string",
              "name": "HealthConditions",
              "type": "string"
            },
            {
              "internalType": "string",
              "name": "HospitalsAttended",
              "type": "string"
            },
            {
              "internalType": "string[]",
              "name": "FileHashes",
              "type": "string[]"
            }
          ],
          "internalType": "struct patient.PatientDetails",
          "name": "",
          "type": "tuple"
        }
      ],
      "payable": false,
      "stateMutability": "view",
      "type": "function"
    }
  ],
  "bytecode": "0x608060405234801561001057600080fd5b50611c35806100206000396000f3fe608060405234801561001057600080fd5b50600436106100575760003560e01c806327f50a2d1461005c5780632ff443821461008c578063cbb89235146100c4578063cc3d967b146100e0578063f740e04514610110575b600080fd5b610076600480360361007191908101906114bd565b61012c565b604051610083919061194e565b60405180910390f35b6100a660048036036100a191908101906114bd565b610256565b6040516100bb99989796959493929190611970565b60405180910390f35b6100de60048036036100d99190810190611527565b6107fc565b005b6100fa60048036036100f591908101906114bd565b610a93565b6040516101079190611a3c565b60405180910390f35b61012a600480360361012591908101906114e6565b611187565b005b60606000808373ffffffffffffffffffffffffffffffffffffffff1673ffffffffffffffffffffffffffffffffffffffff168152602001908152602001600020600901805480602002602001604051908101604052809291908181526020016000905b8282101561024b578382906000526020600020018054600181600116156101000203166002900480601f0160208091040260200160405190810160405280929190818152602001828054600181600116156101000203166002900480156102375780601f1061020c57610100808354040283529160200191610237565b820191906000526020600020905b81548152906001019060200180831161021a57829003601f168201915b50505050508152602001906001019061018f565b505050509050919050565b6000602052806000526040600020600091509050806000018054600181600116156101000203166002900480601f0160208091040260200160405190810160405280929190818152602001828054600181600116156101000203166002900480156103025780601f106102d757610100808354040283529160200191610302565b820191906000526020600020905b8154815290600101906020018083116102e557829003601f168201915b505050505090806001018054600181600116156101000203166002900480601f0160208091040260200160405190810160405280929190818152602001828054600181600116156101000203166002900480156103a05780601f10610375576101008083540402835291602001916103a0565b820191906000526020600020905b81548152906001019060200180831161038357829003601f168201915b505050505090806002018054600181600116156101000203166002900480601f01602080910402602001604051908101604052809291908181526020018280546001816001161561010002031660029004801561043e5780601f106104135761010080835404028352916020019161043e565b820191906000526020600020905b81548152906001019060200180831161042157829003601f168201915b505050505090806003018054600181600116156101000203166002900480601f0160208091040260200160405190810160405280929190818152602001828054600181600116156101000203166002900480156104dc5780601f106104b1576101008083540402835291602001916104dc565b820191906000526020600020905b8154815290600101906020018083116104bf57829003601f168201915b505050505090806004018054600181600116156101000203166002900480601f01602080910402602001604051908101604052809291908181526020018280546001816001161561010002031660029004801561057a5780601f1061054f5761010080835404028352916020019161057a565b820191906000526020600020905b81548152906001019060200180831161055d57829003601f168201915b505050505090806005018054600181600116156101000203166002900480601f0160208091040260200160405190810160405280929190818152602001828054600181600116156101000203166002900480156106185780601f106105ed57610100808354040283529160200191610618565b820191906000526020600020905b8154815290600101906020018083116105fb57829003601f168201915b505050505090806006018054600181600116156101000203166002900480601f0160208091040260200160405190810160405280929190818152602001828054600181600116156101000203166002900480156106b65780601f1061068b576101008083540402835291602001916106b6565b820191906000526020600020905b81548152906001019060200180831161069957829003601f168201915b505050505090806007018054600181600116156101000203166002900480601f0160208091040260200160405190810160405280929190818152602001828054600181600116156101000203166002900480156107545780601f1061072957610100808354040283529160200191610754565b820191906000526020600020905b81548152906001019060200180831161073757829003601f168201915b505050505090806008018054600181600116156101000203166002900480601f0160208091040260200160405190810160405280929190818152602001828054600181600116156101000203166002900480156107f25780601f106107c7576101008083540402835291602001916107f2565b820191906000526020600020905b8154815290600101906020018083116107d557829003601f168201915b5050505050905089565b6040518061014001604052808a81526020018981526020018881526020018781526020018681526020018581526020018481526020018381526020018281526020016001805480602002602001604051908101604052809291908181526020016000905b8282101561091c578382906000526020600020018054600181600116156101000203166002900480601f0160208091040260200160405190810160405280929190818152602001828054600181600116156101000203166002900480156109085780601f106108dd57610100808354040283529160200191610908565b820191906000526020600020905b8154815290600101906020018083116108eb57829003601f168201915b505050505081526020019060010190610860565b505050508152506000803373ffffffffffffffffffffffffffffffffffffffff1673ffffffffffffffffffffffffffffffffffffffff168152602001908152602001600020600082015181600001908051906020019061097d929190611208565b50602082015181600101908051906020019061099a929190611208565b5060408201518160020190805190602001906109b7929190611208565b5060608201518160030190805190602001906109d4929190611208565b5060808201518160040190805190602001906109f1929190611208565b5060a0820151816005019080519060200190610a0e929190611208565b5060c0820151816006019080519060200190610a2b929190611208565b5060e0820151816007019080519060200190610a48929190611208565b50610100820151816008019080519060200190610a66929190611208565b50610120820151816009019080519060200190610a84929190611288565b50905050505050505050505050565b610a9b6112e8565b6000808373ffffffffffffffffffffffffffffffffffffffff1673ffffffffffffffffffffffffffffffffffffffff16815260200190815260200160002060405180610140016040529081600082018054600181600116156101000203166002900480601f016020809104026020016040519081016040528092919081815260200182805460018160011615610100020316600290048015610b7e5780601f10610b5357610100808354040283529160200191610b7e565b820191906000526020600020905b815481529060010190602001808311610b6157829003601f168201915b50505050508152602001600182018054600181600116156101000203166002900480601f016020809104026020016040519081016040528092919081815260200182805460018160011615610100020316600290048015610c205780601f10610bf557610100808354040283529160200191610c20565b820191906000526020600020905b815481529060010190602001808311610c0357829003601f168201915b50505050508152602001600282018054600181600116156101000203166002900480601f016020809104026020016040519081016040528092919081815260200182805460018160011615610100020316600290048015610cc25780601f10610c9757610100808354040283529160200191610cc2565b820191906000526020600020905b815481529060010190602001808311610ca557829003601f168201915b50505050508152602001600382018054600181600116156101000203166002900480601f016020809104026020016040519081016040528092919081815260200182805460018160011615610100020316600290048015610d645780601f10610d3957610100808354040283529160200191610d64565b820191906000526020600020905b815481529060010190602001808311610d4757829003601f168201915b50505050508152602001600482018054600181600116156101000203166002900480601f016020809104026020016040519081016040528092919081815260200182805460018160011615610100020316600290048015610e065780601f10610ddb57610100808354040283529160200191610e06565b820191906000526020600020905b815481529060010190602001808311610de957829003601f168201915b50505050508152602001600582018054600181600116156101000203166002900480601f016020809104026020016040519081016040528092919081815260200182805460018160011615610100020316600290048015610ea85780601f10610e7d57610100808354040283529160200191610ea8565b820191906000526020600020905b815481529060010190602001808311610e8b57829003601f168201915b50505050508152602001600682018054600181600116156101000203166002900480601f016020809104026020016040519081016040528092919081815260200182805460018160011615610100020316600290048015610f4a5780601f10610f1f57610100808354040283529160200191610f4a565b820191906000526020600020905b815481529060010190602001808311610f2d57829003601f168201915b50505050508152602001600782018054600181600116156101000203166002900480601f016020809104026020016040519081016040528092919081815260200182805460018160011615610100020316600290048015610fec5780601f10610fc157610100808354040283529160200191610fec565b820191906000526020600020905b815481529060010190602001808311610fcf57829003601f168201915b50505050508152602001600882018054600181600116156101000203166002900480601f01602080910402602001604051908101604052809291908181526020018280546001816001161561010002031660029004801561108e5780601f106110635761010080835404028352916020019161108e565b820191906000526020600020905b81548152906001019060200180831161107157829003601f168201915b5050505050815260200160098201805480602002602001604051908101604052809291908181526020016000905b82821015611178578382906000526020600020018054600181600116156101000203166002900480601f0160208091040260200160405190810160405280929190818152602001828054600181600116156101000203166002900480156111645780601f1061113957610100808354040283529160200191611164565b820191906000526020600020905b81548152906001019060200180831161114757829003601f168201915b5050505050815260200190600101906110bc565b50505050815250509050919050565b6000803373ffffffffffffffffffffffffffffffffffffffff1673ffffffffffffffffffffffffffffffffffffffff16815260200190815260200160002060090181908060018154018082558091505090600182039060005260206000200160009091929091909150908051906020019061120392919061133b565b505050565b828054600181600116156101000203166002900490600052602060002090601f016020900481019282601f1061124957805160ff1916838001178555611277565b82800160010185558215611277579182015b8281111561127657825182559160200191906001019061125b565b5b50905061128491906113bb565b5090565b8280548282559060005260206000209081019282156112d7579160200282015b828111156112d65782518290805190602001906112c6929190611208565b50916020019190600101906112a8565b5b5090506112e491906113e0565b5090565b604051806101400160405280606081526020016060815260200160608152602001606081526020016060815260200160608152602001606081526020016060815260200160608152602001606081525090565b828054600181600116156101000203166002900490600052602060002090601f016020900481019282601f1061137c57805160ff19168380011785556113aa565b828001600101855582156113aa579182015b828111156113a957825182559160200191906001019061138e565b5b5090506113b791906113bb565b5090565b6113dd91905b808211156113d95760008160009055506001016113c1565b5090565b90565b61140991905b8082111561140557600081816113fc919061140c565b506001016113e6565b5090565b90565b50805460018160011615610100020316600290046000825580601f106114325750611451565b601f01602090049060005260206000209081019061145091906113bb565b5b50565b60008135905061146381611bdb565b92915050565b600082601f83011261147a57600080fd5b813561148d61148882611a8b565b611a5e565b915080825260208301602083018583830111156114a957600080fd5b6114b4838284611b88565b50505092915050565b6000602082840312156114cf57600080fd5b60006114dd84828501611454565b91505092915050565b6000602082840312156114f857600080fd5b600082013567ffffffffffffffff81111561151257600080fd5b61151e84828501611469565b91505092915050565b60008060008060008060008060006101208a8c03121561154657600080fd5b60008a013567ffffffffffffffff81111561156057600080fd5b61156c8c828d01611469565b99505060208a013567ffffffffffffffff81111561158957600080fd5b6115958c828d01611469565b98505060408a013567ffffffffffffffff8111156115b257600080fd5b6115be8c828d01611469565b97505060608a013567ffffffffffffffff8111156115db57600080fd5b6115e78c828d01611469565b96505060808a013567ffffffffffffffff81111561160457600080fd5b6116108c828d01611469565b95505060a08a013567ffffffffffffffff81111561162d57600080fd5b6116398c828d01611469565b94505060c08a013567ffffffffffffffff81111561165657600080fd5b6116628c828d01611469565b93505060e08a013567ffffffffffffffff81111561167f57600080fd5b61168b8c828d01611469565b9250506101008a013567ffffffffffffffff8111156116a957600080fd5b6116b58c828d01611469565b9150509295985092959850929598565b60006116d183836117c3565b905092915050565b60006116e482611ae2565b6116ee8185611b23565b93508360208202850161170085611ac7565b8060005b8581101561173c578484038952815161171d85826116c5565b945061172883611b05565b925060208a01995050600181019050611704565b50829750879550505050505092915050565b600061175982611ad7565b6117638185611b12565b93508360208202850161177585611ab7565b8060005b858110156117b1578484038952815161179285826116c5565b945061179d83611af8565b925060208a01995050600181019050611779565b50829750879550505050505092915050565b60006117ce82611aed565b6117d88185611b34565b93506117e8818560208601611b97565b6117f181611bca565b840191505092915050565b600061180782611aed565b6118118185611b45565b9350611821818560208601611b97565b61182a81611bca565b840191505092915050565b600061014083016000830151848203600086015261185382826117c3565b9150506020830151848203602086015261186d82826117c3565b9150506040830151848203604086015261188782826117c3565b915050606083015184820360608601526118a182826117c3565b915050608083015184820360808601526118bb82826117c3565b91505060a083015184820360a08601526118d582826117c3565b91505060c083015184820360c08601526118ef82826117c3565b91505060e083015184820360e086015261190982826117c3565b91505061010083015184820361010086015261192582826117c3565b915050610120830151848203610120860152611941828261174e565b9150508091505092915050565b6000602082019050818103600083015261196881846116d9565b905092915050565b600061012082019050818103600083015261198b818c6117fc565b9050818103602083015261199f818b6117fc565b905081810360408301526119b3818a6117fc565b905081810360608301526119c781896117fc565b905081810360808301526119db81886117fc565b905081810360a08301526119ef81876117fc565b905081810360c0830152611a0381866117fc565b905081810360e0830152611a1781856117fc565b9050818103610100830152611a2c81846117fc565b90509a9950505050505050505050565b60006020820190508181036000830152611a568184611835565b905092915050565b6000604051905081810181811067ffffffffffffffff82111715611a8157600080fd5b8060405250919050565b600067ffffffffffffffff821115611aa257600080fd5b601f19601f8301169050602081019050919050565b6000819050602082019050919050565b6000819050602082019050919050565b600081519050919050565b600081519050919050565b600081519050919050565b6000602082019050919050565b6000602082019050919050565b600082825260208201905092915050565b600082825260208201905092915050565b600082825260208201905092915050565b600082825260208201905092915050565b6000611b6182611b68565b9050919050565b600073ffffffffffffffffffffffffffffffffffffffff82169050919050565b82818337600083830152505050565b60005b83811015611bb5578082015181840152602081019050611b9a565b83811115611bc4576000848401525b50505050565b6000601f19601f8301169050919050565b611be481611b56565b8114611bef57600080fd5b5056fea365627a7a72315820d584634ac70030d9348fb355f998f62a1ca08e624889c07d4983d90d72d352dc6c6578706572696d656e74616cf564736f6c63430005100040",
  "source": "pragma solidity >=0.4.21 <0.6.0;\n// pragma solidity >=0.7.0 <0.9.0;\npragma experimental ABIEncoderV2;\n\ncontract patient{\n\n    struct PatientDetails{\n    \n    string Name;\n    string Age;\n    string AadhaarNumber;\n    string Email;\n    string PhoneNumber;\n    string Address;\n    string BloodGroup;\n    string HealthConditions;\n    string HospitalsAttended;\n    string[] FileHashes;\n    }\n\n\n    // PatientDetails[] public GroupOfPatients;\n    // mapping (address => string[]) public documents;\n    // mapping (address => string[]) public username;\n\n    // mapping(address => mapping(string => string)) details;\n\n    mapping (address => PatientDetails) public GroupOfPatients;\n\n    string[] emptyStringArray;\n\n    function setDetails(string memory _Name, string memory _Age, string memory _AadhaarNumber , string memory _Email , \n                        string memory _PhoneNumber , string memory _Address , string memory _BloodGroup, \n                        string memory _HealthConditions, string memory _HospitalsAttended) public {\n        GroupOfPatients[msg.sender] = PatientDetails({\n            Name: _Name,\n            Age: _Age,\n            AadhaarNumber: _AadhaarNumber,\n            Email: _Email,\n            PhoneNumber: _PhoneNumber,\n            Address: _Address,\n            BloodGroup: _BloodGroup,\n            HealthConditions: _HealthConditions,\n            HospitalsAttended: _HospitalsAttended,\n            FileHashes: emptyStringArray\n            \n        });\n    }\n\n    \n    \n\n    //write function\n    function addDocument(string memory _fileHash) public {\n        GroupOfPatients[msg.sender].FileHashes.push(_fileHash);\n    }\n\n    // function addUserDetails(string memory _username) public {\n    //     address from = msg.sender;\n    //     username[from].push(_username);\n    // }\n\n\n    //read function\n    function getDocuments(address user) public view returns(string[] memory){\n        return GroupOfPatients[user].FileHashes;\n    }\n\n    function getUserDetails(address user) public view returns(PatientDetails memory){\n        return GroupOfPatients[user];\n    }\n}",
  "sourcePath": "/home/abhirampuranik/HealthcareSystem_Blockchain/src/contracts/patient.sol",
  "compiler": {
    "name": "solc",
    "version": "0.5.16+commit.9c3226ce.Emscripten.clang"
  },
  "schemaVersion": "3.4.3",
  "updatedAt": "2021-11-09T18:51:17.235Z",
  "networkType": "ethereum",
  "devdoc": {
    "methods": {}
  },
  "userdoc": {
    "methods": {}
  }
}